{
  "_format": "hh-sol-artifact-1",
  "contractName": "Insurance",
  "sourceName": "contracts/Insurance.sol",
  "abi": [
    {
      "inputs": [
        {
          "internalType": "string",
          "name": "policyName",
          "type": "string"
        }
      ],
      "name": "DuplicatePolicy",
      "type": "error"
    },
    {
      "inputs": [
        {
          "internalType": "string",
          "name": "policyName",
          "type": "string"
        }
      ],
      "name": "PolicyNotFound",
      "type": "error"
    },
    {
      "anonymous": false,
      "inputs": [
        {
          "indexed": true,
          "internalType": "address",
          "name": "from",
          "type": "address"
        },
        {
          "indexed": true,
          "internalType": "address",
          "name": "to",
          "type": "address"
        }
      ],
      "name": "OwnershipTransferRequested",
      "type": "event"
    },
    {
      "anonymous": false,
      "inputs": [
        {
          "indexed": true,
          "internalType": "address",
          "name": "from",
          "type": "address"
        },
        {
          "indexed": true,
          "internalType": "address",
          "name": "to",
          "type": "address"
        }
      ],
      "name": "OwnershipTransferred",
      "type": "event"
    },
    {
      "anonymous": false,
      "inputs": [
        {
          "indexed": false,
          "internalType": "string",
          "name": "_policyName",
          "type": "string"
        }
      ],
      "name": "PolicyCreated",
      "type": "event"
    },
    {
      "stateMutability": "payable",
      "type": "fallback"
    },
    {
      "inputs": [],
      "name": "acceptOwnership",
      "outputs": [],
      "stateMutability": "nonpayable",
      "type": "function"
    },
    {
      "inputs": [
        {
          "internalType": "string",
          "name": "_policyName",
          "type": "string"
        },
        {
          "internalType": "string[]",
          "name": "_features",
          "type": "string[]"
        },
        {
          "internalType": "string",
          "name": "_description",
          "type": "string"
        },
        {
          "internalType": "uint256",
          "name": "_minTenure",
          "type": "uint256"
        },
        {
          "internalType": "uint256",
          "name": "_maxTenure",
          "type": "uint256"
        },
        {
          "internalType": "uint256",
          "name": "_minSumInsured",
          "type": "uint256"
        },
        {
          "internalType": "uint256",
          "name": "_basePremium",
          "type": "uint256"
        },
        {
          "internalType": "uint256",
          "name": "_yeildPercentage",
          "type": "uint256"
        }
      ],
      "name": "addPolicy",
      "outputs": [
        {
          "internalType": "bool",
          "name": "",
          "type": "bool"
        }
      ],
      "stateMutability": "nonpayable",
      "type": "function"
    },
    {
      "inputs": [
        {
          "internalType": "string",
          "name": "_policyName",
          "type": "string"
        },
        {
          "internalType": "uint256",
          "name": "_tenure",
          "type": "uint256"
        },
        {
          "internalType": "uint256",
          "name": "_sumInsured",
          "type": "uint256"
        },
        {
          "internalType": "enum Model.PremiumFrequancy",
          "name": "_premiumFrequency",
          "type": "uint8"
        },
        {
          "internalType": "uint256",
          "name": "_age",
          "type": "uint256"
        }
      ],
      "name": "buyPolicy",
      "outputs": [
        {
          "internalType": "bool",
          "name": "",
          "type": "bool"
        }
      ],
      "stateMutability": "payable",
      "type": "function"
    },
    {
      "inputs": [
        {
          "internalType": "string",
          "name": "_policyName",
          "type": "string"
        },
        {
          "internalType": "uint256",
          "name": "_tenure",
          "type": "uint256"
        },
        {
          "internalType": "uint256",
          "name": "_sumInsured",
          "type": "uint256"
        },
        {
          "internalType": "enum Model.PremiumFrequancy",
          "name": "_premiumFrequency",
          "type": "uint8"
        },
        {
          "internalType": "uint256",
          "name": "_age",
          "type": "uint256"
        }
      ],
      "name": "calculatePremium",
      "outputs": [
        {
          "internalType": "uint256",
          "name": "",
          "type": "uint256"
        }
      ],
      "stateMutability": "view",
      "type": "function"
    },
    {
      "inputs": [
        {
          "internalType": "string",
          "name": "_policyName",
          "type": "string"
        },
        {
          "internalType": "enum Model.Status",
          "name": "_status",
          "type": "uint8"
        }
      ],
      "name": "changePolicyStatus",
      "outputs": [
        {
          "internalType": "bool",
          "name": "",
          "type": "bool"
        }
      ],
      "stateMutability": "nonpayable",
      "type": "function"
    },
    {
      "inputs": [
        {
          "internalType": "address",
          "name": "_policyHolder",
          "type": "address"
        },
        {
          "internalType": "uint256",
          "name": "_subscriptionIndex",
          "type": "uint256"
        }
      ],
      "name": "claimSettlement",
      "outputs": [
        {
          "internalType": "bool",
          "name": "",
          "type": "bool"
        }
      ],
      "stateMutability": "nonpayable",
      "type": "function"
    },
    {
      "inputs": [],
      "name": "getAllPolicies",
      "outputs": [
        {
          "components": [
            {
              "internalType": "string",
              "name": "name",
              "type": "string"
            },
            {
              "internalType": "string[]",
              "name": "features",
              "type": "string[]"
            },
            {
              "internalType": "string",
              "name": "description",
              "type": "string"
            },
            {
              "internalType": "uint256",
              "name": "minTenure",
              "type": "uint256"
            },
            {
              "internalType": "uint256",
              "name": "maxTenure",
              "type": "uint256"
            },
            {
              "internalType": "uint256",
              "name": "minSumInsured",
              "type": "uint256"
            },
            {
              "internalType": "uint256",
              "name": "basePremium",
              "type": "uint256"
            },
            {
              "internalType": "uint256",
              "name": "yeildPercentage",
              "type": "uint256"
            },
            {
              "internalType": "enum Model.Status",
              "name": "status",
              "type": "uint8"
            }
          ],
          "internalType": "struct Model.Policy[]",
          "name": "_policies",
          "type": "tuple[]"
        }
      ],
      "stateMutability": "view",
      "type": "function"
    },
    {
      "inputs": [],
      "name": "getBalance",
      "outputs": [
        {
          "internalType": "uint256",
          "name": "",
          "type": "uint256"
        }
      ],
      "stateMutability": "view",
      "type": "function"
    },
    {
      "inputs": [
        {
          "internalType": "uint256",
          "name": "dollar",
          "type": "uint256"
        }
      ],
      "name": "getGweiForDollar",
      "outputs": [
        {
          "internalType": "uint256",
          "name": "",
          "type": "uint256"
        }
      ],
      "stateMutability": "view",
      "type": "function"
    },
    {
      "inputs": [
        {
          "internalType": "string",
          "name": "_policyName",
          "type": "string"
        }
      ],
      "name": "getPolicy",
      "outputs": [
        {
          "components": [
            {
              "internalType": "string",
              "name": "name",
              "type": "string"
            },
            {
              "internalType": "string[]",
              "name": "features",
              "type": "string[]"
            },
            {
              "internalType": "string",
              "name": "description",
              "type": "string"
            },
            {
              "internalType": "uint256",
              "name": "minTenure",
              "type": "uint256"
            },
            {
              "internalType": "uint256",
              "name": "maxTenure",
              "type": "uint256"
            },
            {
              "internalType": "uint256",
              "name": "minSumInsured",
              "type": "uint256"
            },
            {
              "internalType": "uint256",
              "name": "basePremium",
              "type": "uint256"
            },
            {
              "internalType": "uint256",
              "name": "yeildPercentage",
              "type": "uint256"
            },
            {
              "internalType": "enum Model.Status",
              "name": "status",
              "type": "uint8"
            }
          ],
          "internalType": "struct Model.Policy",
          "name": "",
          "type": "tuple"
        }
      ],
      "stateMutability": "view",
      "type": "function"
    },
    {
      "inputs": [],
      "name": "getSubscriptions",
      "outputs": [
        {
          "components": [
            {
              "internalType": "string",
              "name": "policyName",
              "type": "string"
            },
            {
              "internalType": "uint256",
              "name": "tenure",
              "type": "uint256"
            },
            {
              "internalType": "uint256",
              "name": "sumInsured",
              "type": "uint256"
            },
            {
              "internalType": "enum Model.PremiumFrequancy",
              "name": "premiumFrequency",
              "type": "uint8"
            },
            {
              "internalType": "uint256",
              "name": "personAge",
              "type": "uint256"
            },
            {
              "internalType": "uint256",
              "name": "premiumAmount",
              "type": "uint256"
            },
            {
              "internalType": "uint256",
              "name": "paidPremium",
              "type": "uint256"
            },
            {
              "internalType": "enum Model.Status",
              "name": "status",
              "type": "uint8"
            }
          ],
          "internalType": "struct Model.Subscription[]",
          "name": "",
          "type": "tuple[]"
        }
      ],
      "stateMutability": "view",
      "type": "function"
    },
    {
      "inputs": [
        {
          "internalType": "address",
          "name": "_policyHolder",
          "type": "address"
        }
      ],
      "name": "getSubscriptions",
      "outputs": [
        {
          "components": [
            {
              "internalType": "string",
              "name": "policyName",
              "type": "string"
            },
            {
              "internalType": "uint256",
              "name": "tenure",
              "type": "uint256"
            },
            {
              "internalType": "uint256",
              "name": "sumInsured",
              "type": "uint256"
            },
            {
              "internalType": "enum Model.PremiumFrequancy",
              "name": "premiumFrequency",
              "type": "uint8"
            },
            {
              "internalType": "uint256",
              "name": "personAge",
              "type": "uint256"
            },
            {
              "internalType": "uint256",
              "name": "premiumAmount",
              "type": "uint256"
            },
            {
              "internalType": "uint256",
              "name": "paidPremium",
              "type": "uint256"
            },
            {
              "internalType": "enum Model.Status",
              "name": "status",
              "type": "uint8"
            }
          ],
          "internalType": "struct Model.Subscription[]",
          "name": "",
          "type": "tuple[]"
        }
      ],
      "stateMutability": "view",
      "type": "function"
    },
    {
      "inputs": [
        {
          "internalType": "uint256",
          "name": "_subscriptionIndex",
          "type": "uint256"
        }
      ],
      "name": "isSubscriptionActive",
      "outputs": [
        {
          "internalType": "bool",
          "name": "",
          "type": "bool"
        }
      ],
      "stateMutability": "view",
      "type": "function"
    },
    {
      "inputs": [],
      "name": "owner",
      "outputs": [
        {
          "internalType": "address",
          "name": "",
          "type": "address"
        }
      ],
      "stateMutability": "view",
      "type": "function"
    },
    {
      "inputs": [
        {
          "internalType": "uint256",
          "name": "_subscriptionIndex",
          "type": "uint256"
        }
      ],
      "name": "payPremium",
      "outputs": [
        {
          "internalType": "bool",
          "name": "",
          "type": "bool"
        }
      ],
      "stateMutability": "payable",
      "type": "function"
    },
    {
      "inputs": [
        {
          "internalType": "address",
          "name": "to",
          "type": "address"
        }
      ],
      "name": "transferOwnership",
      "outputs": [],
      "stateMutability": "nonpayable",
      "type": "function"
    },
    {
      "inputs": [],
      "name": "withdraw",
      "outputs": [],
      "stateMutability": "nonpayable",
      "type": "function"
    },
    {
      "stateMutability": "payable",
      "type": "receive"
    }
  ],
  "bytecode": "0x60806040523480156200001157600080fd5b50338060008073ffffffffffffffffffffffffffffffffffffffff168273ffffffffffffffffffffffffffffffffffffffff16141562000088576040517f08c379a00000000000000000000000000000000000000000000000000000000081526004016200007f90620013a4565b60405180910390fd5b816000806101000a81548173ffffffffffffffffffffffffffffffffffffffff021916908373ffffffffffffffffffffffffffffffffffffffff160217905550600073ffffffffffffffffffffffffffffffffffffffff168173ffffffffffffffffffffffffffffffffffffffff16146200010f576200010e816200108e60201b60201c565b5b5050506000600667ffffffffffffffff811115620001325762000131620013c6565b5b6040519080825280602002602001820160405280156200016757816020015b6060815260200190600190039081620001515790505b5090506040518060400160405280601681526020017f436f76657273204d65646963616c20696c6c6e6573730000000000000000000081525081600081518110620001b757620001b6620013f5565b5b60200260200101819052506040518060400160405280601e81526020017f437269746963616c20686f73706974616c697a6174696f6e20636f7665720000815250816001815181106200020f576200020e620013f5565b5b60200260200101819052506040518060400160405280601381526020017f3130302520636c69616d20636f7665726167650000000000000000000000000081525081600281518110620002675762000266620013f5565b5b60200260200101819052506040518060400160405280601581526020017f4164646f6e20706c616e7320617661696c61626c65000000000000000000000081525081600381518110620002bf57620002be620013f5565b5b60200260200101819052506040518060400160405280601981526020017f466c657869626c6520636f766572616765206f7074696f6e730000000000000081525081600481518110620003175762000316620013f5565b5b60200260200101819052506040518060400160405280601c81526020017f4e6f6d696e656520726567697374726174696f6e206f7074696f6e7300000000815250816005815181106200036f576200036e620013f5565b5b602002602001018190525060026040518061012001604052806040518060400160405280600881526020017f57656c6c6e65737300000000000000000000000000000000000000000000000081525081526020018381526020016040518060400160405280601f81526020017f466f7220696e646976696475616c7320616e6420736d616c6c207465616d730081525081526020016005815260200160198152602001620186a0815260200160098152602001600481526020016000600281111562000440576200043f62001424565b5b815250908060018154018082558091505060019003906000526020600020906009020160009091909190915060008201518160000190805190602001906200048a929190620011be565b506020820151816001019080519060200190620004a99291906200124f565b506040820151816002019080519060200190620004c8929190620011be565b50606082015181600301556080820151816004015560a0820151816005015560c0820151816006015560e082015181600701556101008201518160080160006101000a81548160ff021916908360028111156200052a576200052962001424565b5b021790555050506040518060400160405280601381526020017f47657420617373757265642072657475726e7300000000000000000000000000815250816000815181106200057e576200057d620013f5565b5b60200260200101819052506040518060400160405280601581526020017f34252072657475726e206f6e206d61747572697479000000000000000000000081525081600181518110620005d657620005d5620013f5565b5b60200260200101819052506040518060400160405280601e81526020017f3278207061796d656e7420696e206163636564656e74616c2064656174680000815250816002815181106200062e576200062d620013f5565b5b60200260200101819052506040518060400160405280601581526020017f45617379207072656d69756e6d207061796d656e74000000000000000000000081525081600381518110620006865762000685620013f5565b5b60200260200101819052506040518060400160405280601481526020017f466c657869626c6520706c616e2074656e75726500000000000000000000000081525081600481518110620006de57620006dd620013f5565b5b60200260200101819052506040518060400160405280601c81526020017f4e6f6d696e656520726567697374726174696f6e206f7074696f6e730000000081525081600581518110620007365762000735620013f5565b5b602002602001018190525060026040518061012001604052806040518060400160405280600681526020017f53696c7665720000000000000000000000000000000000000000000000000000815250815260200183815260200160405180606001604052806023815260200162005a86602391398152602001600581526020016019815260200162030d408152602001601381526020016004815260200160006002811115620007eb57620007ea62001424565b5b8152509080600181540180825580915050600190039060005260206000209060090201600090919091909150600082015181600001908051906020019062000835929190620011be565b506020820151816001019080519060200190620008549291906200124f565b50604082015181600201908051906020019062000873929190620011be565b50606082015181600301556080820151816004015560a0820151816005015560c0820151816006015560e082015181600701556101008201518160080160006101000a81548160ff02191690836002811115620008d557620008d462001424565b5b021790555050506040518060400160405280601481526020017f53696c76657220706c616e2062656e656669747300000000000000000000000081525081600081518110620009295762000928620013f5565b5b60200260200101819052506040518060400160405280601781526020017f4d756c7469706c65206e6f6d696e6565206f7074696f6e00000000000000000081525081600181518110620009815762000980620013f5565b5b60200260200101819052506040518060400160405280601781526020017f507265206d61747572697479207769746864726177616c00000000000000000081525081600281518110620009d957620009d8620013f5565b5b60200260200101819052506040518060400160405280601681526020017f46616d696c7920706c616e7320617661696c61626c65000000000000000000008152508160038151811062000a315762000a30620013f5565b5b60200260200101819052506040518060400160405280601481526020017f4c6f616e20616761696e7374206465706f7369740000000000000000000000008152508160048151811062000a895762000a88620013f5565b5b60200260200101819052506040518060400160405280601081526020017f3125206869676865722072657475726e000000000000000000000000000000008152508160058151811062000ae15762000ae0620013f5565b5b602002602001018190525060026040518061012001604052806040518060400160405280600481526020017f476f6c6400000000000000000000000000000000000000000000000000000000815250815260200183815260200160405180606001604052806025815260200162005a616025913981526020016005815260200160198152602001620493e0815260200160638152602001600481526020016000600281111562000b965762000b9562001424565b5b8152509080600181540180825580915050600190039060005260206000209060090201600090919091909150600082015181600001908051906020019062000be0929190620011be565b50602082015181600101908051906020019062000bff9291906200124f565b50604082015181600201908051906020019062000c1e929190620011be565b50606082015181600301556080820151816004015560a0820151816005015560c0820151816006015560e082015181600701556101008201518160080160006101000a81548160ff0219169083600281111562000c805762000c7f62001424565b5b021790555050506040518060400160405280601281526020017f476f6c6420706c616e2062656e656669747300000000000000000000000000008152508160008151811062000cd45762000cd3620013f5565b5b60200260200101819052506040518060400160405280601a81526020017f4d65646963616c20696e737572616e636520696e636c756465640000000000008152508160018151811062000d2c5762000d2b620013f5565b5b60200260200101819052506040518060400160405280601581526020017f4c617465207061796d656e74207761697665722a2a00000000000000000000008152508160028151811062000d845762000d83620013f5565b5b60200260200101819052506040518060400160405280601f81526020017f4f7074696f6e20746f2072656465706f736974206f6e206d61747572697479008152508160038151811062000ddc5762000ddb620013f5565b5b60200260200101819052506040518060400160405280601681526020017f456e746972652066616d696c7920636f766572616765000000000000000000008152508160048151811062000e345762000e33620013f5565b5b60200260200101819052506040518060400160405280601081526020017f3225206869676865722072657475726e000000000000000000000000000000008152508160058151811062000e8c5762000e8b620013f5565b5b602002602001018190525060026040518061012001604052806040518060400160405280600881526020017f506c6174696e756d000000000000000000000000000000000000000000000000815250815260200183815260200160405180606001604052806025815260200162005a61602591398152602001600581526020016019815260200162061a80815260200160638152602001600581526020016000600281111562000f415762000f4062001424565b5b8152509080600181540180825580915050600190039060005260206000209060090201600090919091909150600082015181600001908051906020019062000f8b929190620011be565b50602082015181600101908051906020019062000faa9291906200124f565b50604082015181600201908051906020019062000fc9929190620011be565b50606082015181600301556080820151816004015560a0820151816005015560c0820151816006015560e082015181600701556101008201518160080160006101000a81548160ff021916908360028111156200102b576200102a62001424565b5b021790555050505073d4a33860578de61dbabdc8bfdb98fd742fa7028e600460006101000a81548173ffffffffffffffffffffffffffffffffffffffff021916908373ffffffffffffffffffffffffffffffffffffffff1602179055506200152a565b3373ffffffffffffffffffffffffffffffffffffffff168173ffffffffffffffffffffffffffffffffffffffff16141562001100576040517f08c379a0000000000000000000000000000000000000000000000000000000008152600401620010f790620014a3565b60405180910390fd5b80600160006101000a81548173ffffffffffffffffffffffffffffffffffffffff021916908373ffffffffffffffffffffffffffffffffffffffff1602179055508073ffffffffffffffffffffffffffffffffffffffff1660008054906101000a900473ffffffffffffffffffffffffffffffffffffffff1673ffffffffffffffffffffffffffffffffffffffff167fed8889f560326eb138920d842192f0eb3dd22b4f139c87a2c57538e05bae127860405160405180910390a350565b828054620011cc90620014f4565b90600052602060002090601f016020900481019282620011f057600085556200123c565b82601f106200120b57805160ff19168380011785556200123c565b828001600101855582156200123c579182015b828111156200123b5782518255916020019190600101906200121e565b5b5090506200124b9190620012b6565b5090565b828054828255906000526020600020908101928215620012a3579160200282015b82811115620012a257825182908051906020019062001291929190620011be565b509160200191906001019062001270565b5b509050620012b29190620012d5565b5090565b5b80821115620012d1576000816000905550600101620012b7565b5090565b5b80821115620012f95760008181620012ef9190620012fd565b50600101620012d6565b5090565b5080546200130b90620014f4565b6000825580601f106200131f575062001340565b601f0160209004906000526020600020908101906200133f9190620012b6565b5b50565b600082825260208201905092915050565b7f43616e6e6f7420736574206f776e657220746f207a65726f0000000000000000600082015250565b60006200138c60188362001343565b9150620013998262001354565b602082019050919050565b60006020820190508181036000830152620013bf816200137d565b9050919050565b7f4e487b7100000000000000000000000000000000000000000000000000000000600052604160045260246000fd5b7f4e487b7100000000000000000000000000000000000000000000000000000000600052603260045260246000fd5b7f4e487b7100000000000000000000000000000000000000000000000000000000600052602160045260246000fd5b7f43616e6e6f74207472616e7366657220746f2073656c66000000000000000000600082015250565b60006200148b60178362001343565b9150620014988262001453565b602082019050919050565b60006020820190508181036000830152620014be816200147c565b9050919050565b7f4e487b7100000000000000000000000000000000000000000000000000000000600052602260045260246000fd5b600060028204905060018216806200150d57607f821691505b60208210811415620015245762001523620014c5565b5b50919050565b614527806200153a6000396000f3fe6080604052600436106101025760003560e01c806357e2c0f5116100955780637a5b249b116100645780637a5b249b1461034b5780638272f0d6146103885780638da5cb5b146103c5578063994c9051146103f0578063f2fde38b1461042d57610109565b806357e2c0f51461027d5780635d6a4413146102ba57806360dd5f90146102f757806379ba50971461033457610109565b80634364b26e116100d15780634364b26e146101b5578063457e5521146101e55780634ca036841461021057806353bb073e1461024d57610109565b806312065fe01461010b5780633b47a9ac146101365780633ccfd60b146101615780633fdf9c0a1461017857610109565b3661010957005b005b34801561011757600080fd5b50610120610456565b60405161012d9190612d84565b60405180910390f35b34801561014257600080fd5b5061014b61045e565b6040516101589190613078565b60405180910390f35b34801561016d57600080fd5b506101766106ba565b005b34801561018457600080fd5b5061019f600480360381019061019a9190613350565b610719565b6040516101ac919061347e565b60405180910390f35b6101cf60048036038101906101ca9190613499565b610a67565b6040516101dc919061347e565b60405180910390f35b3480156101f157600080fd5b506101fa610de6565b604051610207919061371d565b60405180910390f35b34801561021c57600080fd5b5061023760048036038101906102329190613764565b6110b0565b604051610244919061347e565b60405180910390f35b610267600480360381019061026291906137e9565b611482565b604051610274919061347e565b60405180910390f35b34801561028957600080fd5b506102a4600480360381019061029f9190613499565b611786565b6040516102b1919061347e565b60405180910390f35b3480156102c657600080fd5b506102e160048036038101906102dc91906138e1565b6118a1565b6040516102ee9190613078565b60405180910390f35b34801561030357600080fd5b5061031e6004803603810190610319919061390e565b611aff565b60405161032b9190613a2e565b60405180910390f35b34801561034057600080fd5b50610349611e8a565b005b34801561035757600080fd5b50610372600480360381019061036d9190613499565b61201f565b60405161037f9190612d84565b60405180910390f35b34801561039457600080fd5b506103af60048036038101906103aa9190613a50565b61205d565b6040516103bc919061347e565b60405180910390f35b3480156103d157600080fd5b506103da6123a6565b6040516103e79190613a9f565b60405180910390f35b3480156103fc57600080fd5b50610417600480360381019061041291906137e9565b6123cf565b6040516104249190612d84565b60405180910390f35b34801561043957600080fd5b50610454600480360381019061044f91906138e1565b61254b565b005b600047905090565b60606000600360003373ffffffffffffffffffffffffffffffffffffffff1673ffffffffffffffffffffffffffffffffffffffff16815260200190815260200160002080549050116104e5576040517f08c379a00000000000000000000000000000000000000000000000000000000081526004016104dc90613b17565b60405180910390fd5b600360003373ffffffffffffffffffffffffffffffffffffffff1673ffffffffffffffffffffffffffffffffffffffff168152602001908152602001600020805480602002602001604051908101604052809291908181526020016000905b828210156106b157838290600052602060002090600802016040518061010001604052908160008201805461057890613b66565b80601f01602080910402602001604051908101604052809291908181526020018280546105a490613b66565b80156105f15780601f106105c6576101008083540402835291602001916105f1565b820191906000526020600020905b8154815290600101906020018083116105d457829003601f168201915b5050505050815260200160018201548152602001600282015481526020016003820160009054906101000a900460ff16600281111561063357610632612e73565b5b600281111561064557610644612e73565b5b81526020016004820154815260200160058201548152602001600682015481526020016007820160009054906101000a900460ff16600281111561068c5761068b612e73565b5b600281111561069e5761069d612e73565b5b8152505081526020019060010190610544565b50505050905090565b6106c261255f565b6106ca6123a6565b73ffffffffffffffffffffffffffffffffffffffff166108fc6106eb610456565b9081150290604051600060405180830381858888f19350505050158015610716573d6000803e3d6000fd5b50565b600061072361255f565b61072d8b8b6125ef565b156107d7576107986040518060600160405280602381526020016144cf602391398c8c8080601f016020809104026020016040519081016040528093929190818152602001838380828437600081840152601f19601f820116905080830192505050505050506126a7565b8a8a6040517f7a9a591d0000000000000000000000000000000000000000000000000000000081526004016107ce929190613bc5565b60405180910390fd5b60026040518061012001604052808d8d8080601f016020809104026020016040519081016040528093929190818152602001838380828437600081840152601f19601f8201169050808301925050505050505081526020018b81526020018a8a8080601f016020809104026020016040519081016040528093929190818152602001838380828437600081840152601f19601f820116905080830192505050505050508152602001888152602001878152602001868152602001858152602001848152602001600060028111156108b1576108b0612e73565b5b815250908060018154018082558091505060019003906000526020600020906009020160009091909190915060008201518160000190805190602001906108f9929190612ba6565b506020820151816001019080519060200190610916929190612c2c565b506040820151816002019080519060200190610933929190612ba6565b50606082015181600301556080820151816004015560a0820151816005015560c0820151816006015560e082015181600701556101008201518160080160006101000a81548160ff0219169083600281111561099257610991612e73565b5b02179055505050610a1c6040518060400160405280601a81526020017f506f6c6963792061646465642077697468206e616d652025732e0000000000008152508c8c8080601f016020809104026020016040519081016040528093929190818152602001838380828437600081840152601f19601f820116905080830192505050505050506126a7565b7f9e300aedbe854f64a3620d6129ad526fbae3ebef59b0771de0023245a87223c88b8b604051610a4d929190613bc5565b60405180910390a1600190509a9950505050505050505050565b6000600360003373ffffffffffffffffffffffffffffffffffffffff1673ffffffffffffffffffffffffffffffffffffffff168152602001908152602001600020805490508210610aed576040517f08c379a0000000000000000000000000000000000000000000000000000000008152600401610ae490613c35565b60405180910390fd5b6000600360003373ffffffffffffffffffffffffffffffffffffffff1673ffffffffffffffffffffffffffffffffffffffff1681526020019081526020016000208381548110610b4057610b3f613c55565b5b906000526020600020906008020160405180610100016040529081600082018054610b6a90613b66565b80601f0160208091040260200160405190810160405280929190818152602001828054610b9690613b66565b8015610be35780601f10610bb857610100808354040283529160200191610be3565b820191906000526020600020905b815481529060010190602001808311610bc657829003601f168201915b5050505050815260200160018201548152602001600282015481526020016003820160009054906101000a900460ff166002811115610c2557610c24612e73565b5b6002811115610c3757610c36612e73565b5b81526020016004820154815260200160058201548152602001600682015481526020016007820160009054906101000a900460ff166002811115610c7e57610c7d612e73565b5b6002811115610c9057610c8f612e73565b5b8152505090508060a00151341015610cdd576040517f08c379a0000000000000000000000000000000000000000000000000000000008152600401610cd490613cd0565b60405180910390fd5b610d206040518060400160405280601f81526020017f7472616e7366657272696e672025732077656920746f20636f6e746163742e008152508260a00151612743565b3073ffffffffffffffffffffffffffffffffffffffff166108fc8260a001519081150290604051600060405180830381858888f19350505050610d6257600080fd5b8060a001518160c00151610d769190613d1f565b600360003373ffffffffffffffffffffffffffffffffffffffff1673ffffffffffffffffffffffffffffffffffffffff1681526020019081526020016000208481548110610dc757610dc6613c55565b5b9060005260206000209060080201600601819055506001915050919050565b60606002805480602002602001604051908101604052809291908181526020016000905b828210156110a7578382906000526020600020906009020160405180610120016040529081600082018054610e3e90613b66565b80601f0160208091040260200160405190810160405280929190818152602001828054610e6a90613b66565b8015610eb75780601f10610e8c57610100808354040283529160200191610eb7565b820191906000526020600020905b815481529060010190602001808311610e9a57829003601f168201915b5050505050815260200160018201805480602002602001604051908101604052809291908181526020016000905b82821015610f91578382906000526020600020018054610f0490613b66565b80601f0160208091040260200160405190810160405280929190818152602001828054610f3090613b66565b8015610f7d5780601f10610f5257610100808354040283529160200191610f7d565b820191906000526020600020905b815481529060010190602001808311610f6057829003601f168201915b505050505081526020019060010190610ee5565b505050508152602001600282018054610fa990613b66565b80601f0160208091040260200160405190810160405280929190818152602001828054610fd590613b66565b80156110225780601f10610ff757610100808354040283529160200191611022565b820191906000526020600020905b81548152906001019060200180831161100557829003601f168201915b5050505050815260200160038201548152602001600482015481526020016005820154815260200160068201548152602001600782015481526020016008820160009054906101000a900460ff16600281111561108257611081612e73565b5b600281111561109457611093612e73565b5b8152505081526020019060010190610e0a565b50505050905090565b60006110ba61255f565b60006110c685856127df565b90506000600282815481106110de576110dd613c55565b5b90600052602060002090600902016040518061012001604052908160008201805461110890613b66565b80601f016020809104026020016040519081016040528092919081815260200182805461113490613b66565b80156111815780601f1061115657610100808354040283529160200191611181565b820191906000526020600020905b81548152906001019060200180831161116457829003601f168201915b5050505050815260200160018201805480602002602001604051908101604052809291908181526020016000905b8282101561125b5783829060005260206000200180546111ce90613b66565b80601f01602080910402602001604051908101604052809291908181526020018280546111fa90613b66565b80156112475780601f1061121c57610100808354040283529160200191611247565b820191906000526020600020905b81548152906001019060200180831161122a57829003601f168201915b5050505050815260200190600101906111af565b50505050815260200160028201805461127390613b66565b80601f016020809104026020016040519081016040528092919081815260200182805461129f90613b66565b80156112ec5780601f106112c1576101008083540402835291602001916112ec565b820191906000526020600020905b8154815290600101906020018083116112cf57829003601f168201915b5050505050815260200160038201548152602001600482015481526020016005820154815260200160068201548152602001600782015481526020016008820160009054906101000a900460ff16600281111561134c5761134b612e73565b5b600281111561135e5761135d612e73565b5b81525050905083816101000190600281111561137d5761137c612e73565b5b9081600281111561139157611390612e73565b5b8152505080600283815481106113aa576113a9613c55565b5b906000526020600020906009020160008201518160000190805190602001906113d4929190612ba6565b5060208201518160010190805190602001906113f1929190612c2c565b50604082015181600201908051906020019061140e929190612ba6565b50606082015181600301556080820151816004015560a0820151816005015560c0820151816006015560e082015181600701556101008201518160080160006101000a81548160ff0219169083600281111561146d5761146c612e73565b5b02179055509050506001925050509392505050565b600086868560006114938484611aff565b90508060a001518210156114dc576040517f08c379a00000000000000000000000000000000000000000000000000000000081526004016114d390613dc1565b60405180910390fd5b60006114f46114ef8d8d8d8d8d8d6123cf565b6128d0565b9050600066038d7ea4c680008261150b9190613de1565b905080341015611550576040517f08c379a000000000000000000000000000000000000000000000000000000000815260040161154790613ead565b60405180910390fd5b6115726040518060600160405280602181526020016144896021913983612743565b3073ffffffffffffffffffffffffffffffffffffffff166108fc829081150290604051600060405180830381858888f193505050506115b057600080fd5b60006040518061010001604052808f8f8080601f016020809104026020016040519081016040528093929190818152602001838380828437600081840152601f19601f8201169050808301925050505050505081526020018d81526020018c81526020018b600281111561162757611626612e73565b5b81526020018a81526020018381526020018381526020016000600281111561165257611651612e73565b5b8152509050600360003373ffffffffffffffffffffffffffffffffffffffff1673ffffffffffffffffffffffffffffffffffffffff16815260200190815260200160002081908060018154018082558091505060019003906000526020600020906008020160009091909190915060008201518160000190805190602001906116dc929190612ba6565b50602082015181600101556040820151816002015560608201518160030160006101000a81548160ff0219169083600281111561171c5761171b612e73565b5b02179055506080820151816004015560a0820151816005015560c0820151816006015560e08201518160070160006101000a81548160ff0219169083600281111561176a57611769612e73565b5b0217905550505060019750505050505050509695505050505050565b600080600360003373ffffffffffffffffffffffffffffffffffffffff1673ffffffffffffffffffffffffffffffffffffffff168152602001908152602001600020805490501161180c576040517f08c379a000000000000000000000000000000000000000000000000000000000815260040161180390613b17565b60405180910390fd5b600360003373ffffffffffffffffffffffffffffffffffffffff1673ffffffffffffffffffffffffffffffffffffffff168152602001908152602001600020805490508210611890576040517f08c379a000000000000000000000000000000000000000000000000000000000815260040161188790613c35565b60405180910390fd5b61189a3383612900565b9050919050565b60606000600360003373ffffffffffffffffffffffffffffffffffffffff1673ffffffffffffffffffffffffffffffffffffffff1681526020019081526020016000208054905011611928576040517f08c379a000000000000000000000000000000000000000000000000000000000815260040161191f90613b17565b60405180910390fd5b600360008373ffffffffffffffffffffffffffffffffffffffff1673ffffffffffffffffffffffffffffffffffffffff168152602001908152602001600020805480602002602001604051908101604052809291908181526020016000905b82821015611af45783829060005260206000209060080201604051806101000160405290816000820180546119bb90613b66565b80601f01602080910402602001604051908101604052809291908181526020018280546119e790613b66565b8015611a345780601f10611a0957610100808354040283529160200191611a34565b820191906000526020600020905b815481529060010190602001808311611a1757829003601f168201915b5050505050815260200160018201548152602001600282015481526020016003820160009054906101000a900460ff166002811115611a7657611a75612e73565b5b6002811115611a8857611a87612e73565b5b81526020016004820154815260200160058201548152602001600682015481526020016007820160009054906101000a900460ff166002811115611acf57611ace612e73565b5b6002811115611ae157611ae0612e73565b5b8152505081526020019060010190611987565b505050509050919050565b611b07612c8c565b60005b600280549050811015611e445760028181548110611b2b57611b2a613c55565b5b9060005260206000209060090201600001604051602001611b4c9190613f6c565b604051602081830303815290604052805190602001208484604051602001611b75929190613fa8565b604051602081830303815290604052805190602001201415611e315760028181548110611ba557611ba4613c55565b5b906000526020600020906009020160405180610120016040529081600082018054611bcf90613b66565b80601f0160208091040260200160405190810160405280929190818152602001828054611bfb90613b66565b8015611c485780601f10611c1d57610100808354040283529160200191611c48565b820191906000526020600020905b815481529060010190602001808311611c2b57829003601f168201915b5050505050815260200160018201805480602002602001604051908101604052809291908181526020016000905b82821015611d22578382906000526020600020018054611c9590613b66565b80601f0160208091040260200160405190810160405280929190818152602001828054611cc190613b66565b8015611d0e5780601f10611ce357610100808354040283529160200191611d0e565b820191906000526020600020905b815481529060010190602001808311611cf157829003601f168201915b505050505081526020019060010190611c76565b505050508152602001600282018054611d3a90613b66565b80601f0160208091040260200160405190810160405280929190818152602001828054611d6690613b66565b8015611db35780601f10611d8857610100808354040283529160200191611db3565b820191906000526020600020905b815481529060010190602001808311611d9657829003601f168201915b5050505050815260200160038201548152602001600482015481526020016005820154815260200160068201548152602001600782015481526020016008820160009054906101000a900460ff166002811115611e1357611e12612e73565b5b6002811115611e2557611e24612e73565b5b81525050915050611e84565b8080611e3c90613fc1565b915050611b0a565b5082826040517fbe78613c000000000000000000000000000000000000000000000000000000008152600401611e7b929190613bc5565b60405180910390fd5b92915050565b600160009054906101000a900473ffffffffffffffffffffffffffffffffffffffff1673ffffffffffffffffffffffffffffffffffffffff163373ffffffffffffffffffffffffffffffffffffffff1614611f1a576040517f08c379a0000000000000000000000000000000000000000000000000000000008152600401611f1190614056565b60405180910390fd5b60008060009054906101000a900473ffffffffffffffffffffffffffffffffffffffff169050336000806101000a81548173ffffffffffffffffffffffffffffffffffffffff021916908373ffffffffffffffffffffffffffffffffffffffff1602179055506000600160006101000a81548173ffffffffffffffffffffffffffffffffffffffff021916908373ffffffffffffffffffffffffffffffffffffffff1602179055503373ffffffffffffffffffffffffffffffffffffffff168173ffffffffffffffffffffffffffffffffffffffff167f8be0079c531659141344cd1fd0a4f28419497f9722a3daafe3b4186f6b6457e060405160405180910390a350565b60008061202a6129a0565b9050620f4240816305f5e100856120419190613de1565b61204b91906140a5565b6120559190613de1565b915050919050565b60006120698383612900565b6120a8576040517f08c379a000000000000000000000000000000000000000000000000000000000815260040161209f90614122565b60405180910390fd5b6000600360008573ffffffffffffffffffffffffffffffffffffffff1673ffffffffffffffffffffffffffffffffffffffff16815260200190815260200160002083815481106120fb576120fa613c55565b5b90600052602060002090600802016040518061010001604052908160008201805461212590613b66565b80601f016020809104026020016040519081016040528092919081815260200182805461215190613b66565b801561219e5780601f106121735761010080835404028352916020019161219e565b820191906000526020600020905b81548152906001019060200180831161218157829003601f168201915b5050505050815260200160018201548152602001600282015481526020016003820160009054906101000a900460ff1660028111156121e0576121df612e73565b5b60028111156121f2576121f1612e73565b5b81526020016004820154815260200160058201548152602001600682015481526020016007820160009054906101000a900460ff16600281111561223957612238612e73565b5b600281111561224b5761224a612e73565b5b8152505090508060c0015161225e610456565b101561229f576040517f08c379a0000000000000000000000000000000000000000000000000000000008152600401612296906141b4565b60405180910390fd5b6122c56040518060600160405280602581526020016144aa602591398260c00151612743565b8373ffffffffffffffffffffffffffffffffffffffff166108fc8260c001519081150290604051600060405180830381858888f1935050505015801561230f573d6000803e3d6000fd5b506002600360008673ffffffffffffffffffffffffffffffffffffffff1673ffffffffffffffffffffffffffffffffffffffff168152602001908152602001600020848154811061236357612362613c55565b5b906000526020600020906008020160070160006101000a81548160ff0219169083600281111561239657612395612e73565b5b0217905550600191505092915050565b60008060009054906101000a900473ffffffffffffffffffffffffffffffffffffffff16905090565b600086868560006123e08484611aff565b90508060a00151821015612429576040517f08c379a000000000000000000000000000000000000000000000000000000000815260040161242090613dc1565b60405180910390fd5b6000606460028a61243a9190613de1565b61244491906140a5565b9050600080600281111561245b5761245a612e73565b5b89600281111561246e5761246d612e73565b5b141561247d57600290506124b0565b6001600281111561249157612490612e73565b5b8960028111156124a4576124a3612e73565b5b14156124af57600190505b5b6000601e8910156124c057600290505b6000600f8d11156124d057600190505b606481856124de9190613de1565b6124e891906140a5565b606483866124f69190613de1565b61250091906140a5565b6064858761250e9190613de1565b61251891906140a5565b8661252391906141d4565b61252d91906141d4565b61253791906141d4565b985050505050505050509695505050505050565b61255361255f565b61255c81612a50565b50565b60008054906101000a900473ffffffffffffffffffffffffffffffffffffffff1673ffffffffffffffffffffffffffffffffffffffff163373ffffffffffffffffffffffffffffffffffffffff16146125ed576040517f08c379a00000000000000000000000000000000000000000000000000000000081526004016125e490614254565b60405180910390fd5b565b600080600090505b60028054905081101561269b576002818154811061261857612617613c55565b5b90600052602060002090600902016000016040516020016126399190613f6c565b604051602081830303815290604052805190602001208484604051602001612662929190613fa8565b6040516020818303038152906040528051906020012014156126885760019150506126a1565b808061269390613fc1565b9150506125f7565b50600090505b92915050565b61273f82826040516024016126bd9291906142ad565b6040516020818303038152906040527f4b5c4277000000000000000000000000000000000000000000000000000000007bffffffffffffffffffffffffffffffffffffffffffffffffffffffff19166020820180517bffffffffffffffffffffffffffffffffffffffffffffffffffffffff8381831617835250505050612b7d565b5050565b6127db82826040516024016127599291906142e4565b6040516020818303038152906040527fb60e72cc000000000000000000000000000000000000000000000000000000007bffffffffffffffffffffffffffffffffffffffffffffffffffffffff19166020820180517bffffffffffffffffffffffffffffffffffffffffffffffffffffffff8381831617835250505050612b7d565b5050565b600080600090505b60028054905081101561288a576002818154811061280857612807613c55565b5b90600052602060002090600902016000016040516020016128299190613f6c565b604051602081830303815290604052805190602001208484604051602001612852929190613fa8565b60405160208183030381529060405280519060200120141561287757809150506128ca565b808061288290613fc1565b9150506127e7565b5082826040517fbe78613c0000000000000000000000000000000000000000000000000000000081526004016128c1929190613bc5565b60405180910390fd5b92915050565b6000806128db6129a0565b9050806305f5e100846128ee9190613de1565b6128f891906140a5565b915050919050565b600080600281111561291557612914612e73565b5b600360008573ffffffffffffffffffffffffffffffffffffffff1673ffffffffffffffffffffffffffffffffffffffff168152602001908152602001600020838154811061296657612965613c55565b5b906000526020600020906008020160070160009054906101000a900460ff16600281111561299757612996612e73565b5b14905092915050565b600080600460009054906101000a900473ffffffffffffffffffffffffffffffffffffffff1673ffffffffffffffffffffffffffffffffffffffff1663feaf968c6040518163ffffffff1660e01b815260040160a06040518083038186803b158015612a0b57600080fd5b505afa158015612a1f573d6000803e3d6000fd5b505050506040513d601f19601f82011682018060405250810190612a4391906143a1565b5050509150508091505090565b3373ffffffffffffffffffffffffffffffffffffffff168173ffffffffffffffffffffffffffffffffffffffff161415612abf576040517f08c379a0000000000000000000000000000000000000000000000000000000008152600401612ab690614468565b60405180910390fd5b80600160006101000a81548173ffffffffffffffffffffffffffffffffffffffff021916908373ffffffffffffffffffffffffffffffffffffffff1602179055508073ffffffffffffffffffffffffffffffffffffffff1660008054906101000a900473ffffffffffffffffffffffffffffffffffffffff1673ffffffffffffffffffffffffffffffffffffffff167fed8889f560326eb138920d842192f0eb3dd22b4f139c87a2c57538e05bae127860405160405180910390a350565b60008151905060006a636f6e736f6c652e6c6f679050602083016000808483855afa5050505050565b828054612bb290613b66565b90600052602060002090601f016020900481019282612bd45760008555612c1b565b82601f10612bed57805160ff1916838001178555612c1b565b82800160010185558215612c1b579182015b82811115612c1a578251825591602001919060010190612bff565b5b509050612c289190612cea565b5090565b828054828255906000526020600020908101928215612c7b579160200282015b82811115612c7a578251829080519060200190612c6a929190612ba6565b5091602001919060010190612c4c565b5b509050612c889190612d07565b5090565b604051806101200160405280606081526020016060815260200160608152602001600081526020016000815260200160008152602001600081526020016000815260200160006002811115612ce457612ce3612e73565b5b81525090565b5b80821115612d03576000816000905550600101612ceb565b5090565b5b80821115612d275760008181612d1e9190612d2b565b50600101612d08565b5090565b508054612d3790613b66565b6000825580601f10612d495750612d68565b601f016020900490600052602060002090810190612d679190612cea565b5b50565b6000819050919050565b612d7e81612d6b565b82525050565b6000602082019050612d996000830184612d75565b92915050565b600081519050919050565b600082825260208201905092915050565b6000819050602082019050919050565b600081519050919050565b600082825260208201905092915050565b60005b83811015612e05578082015181840152602081019050612dea565b83811115612e14576000848401525b50505050565b6000601f19601f8301169050919050565b6000612e3682612dcb565b612e408185612dd6565b9350612e50818560208601612de7565b612e5981612e1a565b840191505092915050565b612e6d81612d6b565b82525050565b7f4e487b7100000000000000000000000000000000000000000000000000000000600052602160045260246000fd5b60038110612eb357612eb2612e73565b5b50565b6000819050612ec482612ea2565b919050565b6000612ed482612eb6565b9050919050565b612ee481612ec9565b82525050565b60038110612efb57612efa612e73565b5b50565b6000819050612f0c82612eea565b919050565b6000612f1c82612efe565b9050919050565b612f2c81612f11565b82525050565b6000610100830160008301518482036000860152612f508282612e2b565b9150506020830151612f656020860182612e64565b506040830151612f786040860182612e64565b506060830151612f8b6060860182612edb565b506080830151612f9e6080860182612e64565b5060a0830151612fb160a0860182612e64565b5060c0830151612fc460c0860182612e64565b5060e0830151612fd760e0860182612f23565b508091505092915050565b6000612fee8383612f32565b905092915050565b6000602082019050919050565b600061300e82612d9f565b6130188185612daa565b93508360208202850161302a85612dbb565b8060005b8581101561306657848403895281516130478582612fe2565b945061305283612ff6565b925060208a0199505060018101905061302e565b50829750879550505050505092915050565b600060208201905081810360008301526130928184613003565b905092915050565b6000604051905090565b600080fd5b600080fd5b600080fd5b600080fd5b600080fd5b60008083601f8401126130d3576130d26130ae565b5b8235905067ffffffffffffffff8111156130f0576130ef6130b3565b5b60208301915083600182028301111561310c5761310b6130b8565b5b9250929050565b7f4e487b7100000000000000000000000000000000000000000000000000000000600052604160045260246000fd5b61314b82612e1a565b810181811067ffffffffffffffff8211171561316a57613169613113565b5b80604052505050565b600061317d61309a565b90506131898282613142565b919050565b600067ffffffffffffffff8211156131a9576131a8613113565b5b602082029050602081019050919050565b600080fd5b600067ffffffffffffffff8211156131da576131d9613113565b5b6131e382612e1a565b9050602081019050919050565b82818337600083830152505050565b600061321261320d846131bf565b613173565b90508281526020810184848401111561322e5761322d6131ba565b5b6132398482856131f0565b509392505050565b600082601f830112613256576132556130ae565b5b81356132668482602086016131ff565b91505092915050565b600061328261327d8461318e565b613173565b905080838252602082019050602084028301858111156132a5576132a46130b8565b5b835b818110156132ec57803567ffffffffffffffff8111156132ca576132c96130ae565b5b8086016132d78982613241565b855260208501945050506020810190506132a7565b5050509392505050565b600082601f83011261330b5761330a6130ae565b5b813561331b84826020860161326f565b91505092915050565b61332d81612d6b565b811461333857600080fd5b50565b60008135905061334a81613324565b92915050565b6000806000806000806000806000806101008b8d031215613374576133736130a4565b5b60008b013567ffffffffffffffff811115613392576133916130a9565b5b61339e8d828e016130bd565b9a509a505060208b013567ffffffffffffffff8111156133c1576133c06130a9565b5b6133cd8d828e016132f6565b98505060408b013567ffffffffffffffff8111156133ee576133ed6130a9565b5b6133fa8d828e016130bd565b9750975050606061340d8d828e0161333b565b955050608061341e8d828e0161333b565b94505060a061342f8d828e0161333b565b93505060c06134408d828e0161333b565b92505060e06134518d828e0161333b565b9150509295989b9194979a5092959850565b60008115159050919050565b61347881613463565b82525050565b6000602082019050613493600083018461346f565b92915050565b6000602082840312156134af576134ae6130a4565b5b60006134bd8482850161333b565b91505092915050565b600081519050919050565b600082825260208201905092915050565b6000819050602082019050919050565b600081519050919050565b600082825260208201905092915050565b6000819050602082019050919050565b600061352a8383612e2b565b905092915050565b6000602082019050919050565b600061354a826134f2565b61355481856134fd565b9350836020820285016135668561350e565b8060005b858110156135a25784840389528151613583858261351e565b945061358e83613532565b925060208a0199505060018101905061356a565b50829750879550505050505092915050565b60006101208301600083015184820360008601526135d28282612e2b565b915050602083015184820360208601526135ec828261353f565b915050604083015184820360408601526136068282612e2b565b915050606083015161361b6060860182612e64565b50608083015161362e6080860182612e64565b5060a083015161364160a0860182612e64565b5060c083015161365460c0860182612e64565b5060e083015161366760e0860182612e64565b5061010083015161367c610100860182612f23565b508091505092915050565b600061369383836135b4565b905092915050565b6000602082019050919050565b60006136b3826134c6565b6136bd81856134d1565b9350836020820285016136cf856134e2565b8060005b8581101561370b57848403895281516136ec8582613687565b94506136f78361369b565b925060208a019950506001810190506136d3565b50829750879550505050505092915050565b6000602082019050818103600083015261373781846136a8565b905092915050565b6003811061374c57600080fd5b50565b60008135905061375e8161373f565b92915050565b60008060006040848603121561377d5761377c6130a4565b5b600084013567ffffffffffffffff81111561379b5761379a6130a9565b5b6137a7868287016130bd565b935093505060206137ba8682870161374f565b9150509250925092565b600381106137d157600080fd5b50565b6000813590506137e3816137c4565b92915050565b60008060008060008060a08789031215613806576138056130a4565b5b600087013567ffffffffffffffff811115613824576138236130a9565b5b61383089828a016130bd565b9650965050602061384389828a0161333b565b945050604061385489828a0161333b565b935050606061386589828a016137d4565b925050608061387689828a0161333b565b9150509295509295509295565b600073ffffffffffffffffffffffffffffffffffffffff82169050919050565b60006138ae82613883565b9050919050565b6138be816138a3565b81146138c957600080fd5b50565b6000813590506138db816138b5565b92915050565b6000602082840312156138f7576138f66130a4565b5b6000613905848285016138cc565b91505092915050565b60008060208385031215613925576139246130a4565b5b600083013567ffffffffffffffff811115613943576139426130a9565b5b61394f858286016130bd565b92509250509250929050565b60006101208301600083015184820360008601526139798282612e2b565b91505060208301518482036020860152613993828261353f565b915050604083015184820360408601526139ad8282612e2b565b91505060608301516139c26060860182612e64565b5060808301516139d56080860182612e64565b5060a08301516139e860a0860182612e64565b5060c08301516139fb60c0860182612e64565b5060e0830151613a0e60e0860182612e64565b50610100830151613a23610100860182612f23565b508091505092915050565b60006020820190508181036000830152613a48818461395b565b905092915050565b60008060408385031215613a6757613a666130a4565b5b6000613a75858286016138cc565b9250506020613a868582860161333b565b9150509250929050565b613a99816138a3565b82525050565b6000602082019050613ab46000830184613a90565b92915050565b600082825260208201905092915050565b7f4e6f74206120706f6c69637920686f6c6465722e000000000000000000000000600082015250565b6000613b01601483613aba565b9150613b0c82613acb565b602082019050919050565b60006020820190508181036000830152613b3081613af4565b9050919050565b7f4e487b7100000000000000000000000000000000000000000000000000000000600052602260045260246000fd5b60006002820490506001821680613b7e57607f821691505b60208210811415613b9257613b91613b37565b5b50919050565b6000613ba48385613aba565b9350613bb18385846131f0565b613bba83612e1a565b840190509392505050565b60006020820190508181036000830152613be0818486613b98565b90509392505050565b7f496e76616c696420737562736372697074696f6e2049642e0000000000000000600082015250565b6000613c1f601883613aba565b9150613c2a82613be9565b602082019050919050565b60006020820190508181036000830152613c4e81613c12565b9050919050565b7f4e487b7100000000000000000000000000000000000000000000000000000000600052603260045260246000fd5b7f4e6f7420656e6f7567682077656920746f20706179207072656d696e756d0000600082015250565b6000613cba601e83613aba565b9150613cc582613c84565b602082019050919050565b60006020820190508181036000830152613ce981613cad565b9050919050565b7f4e487b7100000000000000000000000000000000000000000000000000000000600052601160045260246000fd5b6000613d2a82612d6b565b9150613d3583612d6b565b9250827fffffffffffffffffffffffffffffffffffffffffffffffffffffffffffffffff03821115613d6a57613d69613cf0565b5b828201905092915050565b7f73756d2061737375726564206973206e6f7420636f72726563742e0000000000600082015250565b6000613dab601b83613aba565b9150613db682613d75565b602082019050919050565b60006020820190508181036000830152613dda81613d9e565b9050919050565b6000613dec82612d6b565b9150613df783612d6b565b9250817fffffffffffffffffffffffffffffffffffffffffffffffffffffffffffffffff0483118215151615613e3057613e2f613cf0565b5b828202905092915050565b7f4e6f7420656e6f7567682057656920746f20627579207468697320706f6c696360008201527f7900000000000000000000000000000000000000000000000000000000000000602082015250565b6000613e97602183613aba565b9150613ea282613e3b565b604082019050919050565b60006020820190508181036000830152613ec681613e8a565b9050919050565b600081905092915050565b60008190508160005260206000209050919050565b60008154613efa81613b66565b613f048186613ecd565b94506001821660008114613f1f5760018114613f3057613f63565b60ff19831686528186019350613f63565b613f3985613ed8565b60005b83811015613f5b57815481890152600182019150602081019050613f3c565b838801955050505b50505092915050565b6000613f788284613eed565b915081905092915050565b6000613f8f8385613ecd565b9350613f9c8385846131f0565b82840190509392505050565b6000613fb5828486613f83565b91508190509392505050565b6000613fcc82612d6b565b91507fffffffffffffffffffffffffffffffffffffffffffffffffffffffffffffffff821415613fff57613ffe613cf0565b5b600182019050919050565b7f4d7573742062652070726f706f736564206f776e657200000000000000000000600082015250565b6000614040601683613aba565b915061404b8261400a565b602082019050919050565b6000602082019050818103600083015261406f81614033565b9050919050565b7f4e487b7100000000000000000000000000000000000000000000000000000000600052601260045260246000fd5b60006140b082612d6b565b91506140bb83612d6b565b9250826140cb576140ca614076565b5b828204905092915050565b7f537562736372697074696f6e206973206e6f7420616374697665000000000000600082015250565b600061410c601a83613aba565b9150614117826140d6565b602082019050919050565b6000602082019050818103600083015261413b816140ff565b9050919050565b7f4e6f7420656e6f7567682062616c616e636520746f20736574746c6520636c6160008201527f696d2e0000000000000000000000000000000000000000000000000000000000602082015250565b600061419e602383613aba565b91506141a982614142565b604082019050919050565b600060208201905081810360008301526141cd81614191565b9050919050565b60006141df82612d6b565b91506141ea83612d6b565b9250828210156141fd576141fc613cf0565b5b828203905092915050565b7f4f6e6c792063616c6c61626c65206279206f776e657200000000000000000000600082015250565b600061423e601683613aba565b915061424982614208565b602082019050919050565b6000602082019050818103600083015261426d81614231565b9050919050565b600061427f82612dcb565b6142898185613aba565b9350614299818560208601612de7565b6142a281612e1a565b840191505092915050565b600060408201905081810360008301526142c78185614274565b905081810360208301526142db8184614274565b90509392505050565b600060408201905081810360008301526142fe8185614274565b905061430d6020830184612d75565b9392505050565b600069ffffffffffffffffffff82169050919050565b61433381614314565b811461433e57600080fd5b50565b6000815190506143508161432a565b92915050565b6000819050919050565b61436981614356565b811461437457600080fd5b50565b60008151905061438681614360565b92915050565b60008151905061439b81613324565b92915050565b600080600080600060a086880312156143bd576143bc6130a4565b5b60006143cb88828901614341565b95505060206143dc88828901614377565b94505060406143ed8882890161438c565b93505060606143fe8882890161438c565b925050608061440f88828901614341565b9150509295509295909350565b7f43616e6e6f74207472616e7366657220746f2073656c66000000000000000000600082015250565b6000614452601783613aba565b915061445d8261441c565b602082019050919050565b6000602082019050818103600083015261448181614445565b905091905056fe7472616e7366657272696e6720257320657468657220746f20636f6e746163742e7472616e7366657272696e672025732077656920746f20706f6c69637920686f6c6465722e506f6c6963792077697468206e616d6520257320616c7265616479206578697374732ea26469706673582212209e91e2cf60a17efd78d95ad509fd9901914dec7356e6fdc2abae4bac72cdb1a864736f6c63430008090033466f72206f7267616e69736174696f6e73207769746820616476616e636564206e65656473466f7220737461727475707320616e642067726f77696e6720627573696e6573736573",
  "linkReferences": {},
  "deployedLinkReferences": {}
}