{
  "_format": "hh-sol-artifact-1",
  "contractName": "Insurance",
  "sourceName": "contracts/Insurance.sol",
  "abi": [
    {
      "inputs": [
        {
          "internalType": "string",
          "name": "policyName",
          "type": "string"
        }
      ],
      "name": "DuplicatePolicy",
      "type": "error"
    },
    {
      "inputs": [
        {
          "internalType": "string",
          "name": "policyName",
          "type": "string"
        }
      ],
      "name": "PolicyNotFound",
      "type": "error"
    },
    {
      "anonymous": false,
      "inputs": [
        {
          "indexed": true,
          "internalType": "address",
          "name": "from",
          "type": "address"
        },
        {
          "indexed": true,
          "internalType": "address",
          "name": "to",
          "type": "address"
        }
      ],
      "name": "OwnershipTransferRequested",
      "type": "event"
    },
    {
      "anonymous": false,
      "inputs": [
        {
          "indexed": true,
          "internalType": "address",
          "name": "from",
          "type": "address"
        },
        {
          "indexed": true,
          "internalType": "address",
          "name": "to",
          "type": "address"
        }
      ],
      "name": "OwnershipTransferred",
      "type": "event"
    },
    {
      "stateMutability": "payable",
      "type": "fallback"
    },
    {
      "inputs": [],
      "name": "acceptOwnership",
      "outputs": [],
      "stateMutability": "nonpayable",
      "type": "function"
    },
    {
      "inputs": [
        {
          "internalType": "string",
          "name": "_policyName",
          "type": "string"
        },
        {
          "internalType": "string[]",
          "name": "_features",
          "type": "string[]"
        },
        {
          "internalType": "string",
          "name": "_description",
          "type": "string"
        },
        {
          "internalType": "uint256",
          "name": "_minTenure",
          "type": "uint256"
        },
        {
          "internalType": "uint256",
          "name": "_maxTenure",
          "type": "uint256"
        },
        {
          "internalType": "uint256",
          "name": "_minSumInsured",
          "type": "uint256"
        },
        {
          "internalType": "uint256",
          "name": "_yeildPercentage",
          "type": "uint256"
        },
        {
          "internalType": "string",
          "name": "_terms",
          "type": "string"
        }
      ],
      "name": "addPolicy",
      "outputs": [
        {
          "internalType": "bool",
          "name": "",
          "type": "bool"
        }
      ],
      "stateMutability": "nonpayable",
      "type": "function"
    },
    {
      "inputs": [
        {
          "internalType": "string",
          "name": "_policyName",
          "type": "string"
        },
        {
          "internalType": "uint256",
          "name": "_tenure",
          "type": "uint256"
        },
        {
          "internalType": "uint256",
          "name": "_sumInsured",
          "type": "uint256"
        },
        {
          "internalType": "enum ModelState.PremiumFrequancy",
          "name": "_premiumFrequency",
          "type": "uint8"
        },
        {
          "internalType": "uint256",
          "name": "_age",
          "type": "uint256"
        }
      ],
      "name": "buyPolicy",
      "outputs": [
        {
          "internalType": "bool",
          "name": "",
          "type": "bool"
        }
      ],
      "stateMutability": "payable",
      "type": "function"
    },
    {
      "inputs": [
        {
          "internalType": "string",
          "name": "_policyName",
          "type": "string"
        },
        {
          "internalType": "uint256",
          "name": "_tenure",
          "type": "uint256"
        },
        {
          "internalType": "uint256",
          "name": "_sumInsured",
          "type": "uint256"
        },
        {
          "internalType": "enum ModelState.PremiumFrequancy",
          "name": "_premiumFrequency",
          "type": "uint8"
        },
        {
          "internalType": "uint256",
          "name": "_age",
          "type": "uint256"
        }
      ],
      "name": "calculatePremium",
      "outputs": [
        {
          "internalType": "uint256",
          "name": "",
          "type": "uint256"
        }
      ],
      "stateMutability": "view",
      "type": "function"
    },
    {
      "inputs": [
        {
          "internalType": "string",
          "name": "_policyName",
          "type": "string"
        },
        {
          "internalType": "enum ModelState.Status",
          "name": "_status",
          "type": "uint8"
        }
      ],
      "name": "changePolicyStatus",
      "outputs": [
        {
          "internalType": "bool",
          "name": "",
          "type": "bool"
        }
      ],
      "stateMutability": "nonpayable",
      "type": "function"
    },
    {
      "inputs": [
        {
          "internalType": "address",
          "name": "_policyHolder",
          "type": "address"
        },
        {
          "internalType": "uint256",
          "name": "_subscriptionIndex",
          "type": "uint256"
        }
      ],
      "name": "claimSettlement",
      "outputs": [
        {
          "internalType": "bool",
          "name": "",
          "type": "bool"
        }
      ],
      "stateMutability": "nonpayable",
      "type": "function"
    },
    {
      "inputs": [],
      "name": "getAllPolicies",
      "outputs": [
        {
          "components": [
            {
              "internalType": "string",
              "name": "name",
              "type": "string"
            },
            {
              "internalType": "string[]",
              "name": "features",
              "type": "string[]"
            },
            {
              "internalType": "string",
              "name": "description",
              "type": "string"
            },
            {
              "internalType": "uint256",
              "name": "minTenure",
              "type": "uint256"
            },
            {
              "internalType": "uint256",
              "name": "maxTenure",
              "type": "uint256"
            },
            {
              "internalType": "uint256",
              "name": "minSumInsured",
              "type": "uint256"
            },
            {
              "internalType": "uint256",
              "name": "yeildPercentage",
              "type": "uint256"
            },
            {
              "internalType": "string",
              "name": "terms",
              "type": "string"
            },
            {
              "internalType": "enum ModelState.Status",
              "name": "status",
              "type": "uint8"
            }
          ],
          "internalType": "struct ModelState.Policy[]",
          "name": "_policies",
          "type": "tuple[]"
        }
      ],
      "stateMutability": "view",
      "type": "function"
    },
    {
      "inputs": [],
      "name": "getBalance",
      "outputs": [
        {
          "internalType": "uint256",
          "name": "",
          "type": "uint256"
        }
      ],
      "stateMutability": "view",
      "type": "function"
    },
    {
      "inputs": [
        {
          "internalType": "uint256",
          "name": "dollar",
          "type": "uint256"
        }
      ],
      "name": "getGweiForDollar",
      "outputs": [
        {
          "internalType": "uint256",
          "name": "",
          "type": "uint256"
        }
      ],
      "stateMutability": "view",
      "type": "function"
    },
    {
      "inputs": [
        {
          "internalType": "string",
          "name": "_policyName",
          "type": "string"
        }
      ],
      "name": "getPolicy",
      "outputs": [
        {
          "components": [
            {
              "internalType": "string",
              "name": "name",
              "type": "string"
            },
            {
              "internalType": "string[]",
              "name": "features",
              "type": "string[]"
            },
            {
              "internalType": "string",
              "name": "description",
              "type": "string"
            },
            {
              "internalType": "uint256",
              "name": "minTenure",
              "type": "uint256"
            },
            {
              "internalType": "uint256",
              "name": "maxTenure",
              "type": "uint256"
            },
            {
              "internalType": "uint256",
              "name": "minSumInsured",
              "type": "uint256"
            },
            {
              "internalType": "uint256",
              "name": "yeildPercentage",
              "type": "uint256"
            },
            {
              "internalType": "string",
              "name": "terms",
              "type": "string"
            },
            {
              "internalType": "enum ModelState.Status",
              "name": "status",
              "type": "uint8"
            }
          ],
          "internalType": "struct ModelState.Policy",
          "name": "",
          "type": "tuple"
        }
      ],
      "stateMutability": "view",
      "type": "function"
    },
    {
      "inputs": [],
      "name": "getSubscriptions",
      "outputs": [
        {
          "components": [
            {
              "internalType": "string",
              "name": "policyName",
              "type": "string"
            },
            {
              "internalType": "uint256",
              "name": "tenure",
              "type": "uint256"
            },
            {
              "internalType": "uint256",
              "name": "sumInsured",
              "type": "uint256"
            },
            {
              "internalType": "enum ModelState.PremiumFrequancy",
              "name": "premiumFrequency",
              "type": "uint8"
            },
            {
              "internalType": "uint256",
              "name": "personAge",
              "type": "uint256"
            },
            {
              "internalType": "uint256",
              "name": "premiumAmount",
              "type": "uint256"
            },
            {
              "internalType": "uint256",
              "name": "paidPremium",
              "type": "uint256"
            },
            {
              "internalType": "enum ModelState.Status",
              "name": "status",
              "type": "uint8"
            }
          ],
          "internalType": "struct ModelState.Subscription[]",
          "name": "",
          "type": "tuple[]"
        }
      ],
      "stateMutability": "view",
      "type": "function"
    },
    {
      "inputs": [
        {
          "internalType": "address",
          "name": "_policyHolder",
          "type": "address"
        }
      ],
      "name": "getSubscriptions",
      "outputs": [
        {
          "components": [
            {
              "internalType": "string",
              "name": "policyName",
              "type": "string"
            },
            {
              "internalType": "uint256",
              "name": "tenure",
              "type": "uint256"
            },
            {
              "internalType": "uint256",
              "name": "sumInsured",
              "type": "uint256"
            },
            {
              "internalType": "enum ModelState.PremiumFrequancy",
              "name": "premiumFrequency",
              "type": "uint8"
            },
            {
              "internalType": "uint256",
              "name": "personAge",
              "type": "uint256"
            },
            {
              "internalType": "uint256",
              "name": "premiumAmount",
              "type": "uint256"
            },
            {
              "internalType": "uint256",
              "name": "paidPremium",
              "type": "uint256"
            },
            {
              "internalType": "enum ModelState.Status",
              "name": "status",
              "type": "uint8"
            }
          ],
          "internalType": "struct ModelState.Subscription[]",
          "name": "",
          "type": "tuple[]"
        }
      ],
      "stateMutability": "view",
      "type": "function"
    },
    {
      "inputs": [
        {
          "internalType": "uint256",
          "name": "_subscriptionIndex",
          "type": "uint256"
        }
      ],
      "name": "isSubscriptionActive",
      "outputs": [
        {
          "internalType": "bool",
          "name": "",
          "type": "bool"
        }
      ],
      "stateMutability": "view",
      "type": "function"
    },
    {
      "inputs": [],
      "name": "owner",
      "outputs": [
        {
          "internalType": "address",
          "name": "",
          "type": "address"
        }
      ],
      "stateMutability": "view",
      "type": "function"
    },
    {
      "inputs": [
        {
          "internalType": "uint256",
          "name": "_subscriptionIndex",
          "type": "uint256"
        }
      ],
      "name": "payPremium",
      "outputs": [
        {
          "internalType": "bool",
          "name": "",
          "type": "bool"
        }
      ],
      "stateMutability": "payable",
      "type": "function"
    },
    {
      "inputs": [
        {
          "internalType": "address",
          "name": "to",
          "type": "address"
        }
      ],
      "name": "transferOwnership",
      "outputs": [],
      "stateMutability": "nonpayable",
      "type": "function"
    },
    {
      "inputs": [],
      "name": "withdraw",
      "outputs": [],
      "stateMutability": "nonpayable",
      "type": "function"
    },
    {
      "stateMutability": "payable",
      "type": "receive"
    }
  ],
  "bytecode": "0x60806040523480156200001157600080fd5b50338060008073ffffffffffffffffffffffffffffffffffffffff168273ffffffffffffffffffffffffffffffffffffffff16141562000088576040517f08c379a00000000000000000000000000000000000000000000000000000000081526004016200007f9062000de4565b60405180910390fd5b816000806101000a81548173ffffffffffffffffffffffffffffffffffffffff021916908373ffffffffffffffffffffffffffffffffffffffff160217905550600073ffffffffffffffffffffffffffffffffffffffff168173ffffffffffffffffffffffffffffffffffffffff16146200010f576200010e8162000ace60201b60201c565b5b5050506000600367ffffffffffffffff81111562000132576200013162000e06565b5b6040519080825280602002602001820160405280156200016757816020015b6060815260200190600190039081620001515790505b5090506040518060400160405280600981526020017f666561747572652031000000000000000000000000000000000000000000000081525081600081518110620001b757620001b662000e35565b5b60200260200101819052506040518060400160405280600981526020017f6665617475726520320000000000000000000000000000000000000000000000815250816001815181106200020f576200020e62000e35565b5b60200260200101819052506040518060400160405280600981526020017f66656174757265203300000000000000000000000000000000000000000000008152508160028151811062000267576200026662000e35565b5b602002602001018190525060026040518061012001604052806040518060400160405280600881526020017f57656c6c6e65737300000000000000000000000000000000000000000000000081525081526020018381526020016040518060400160405280600f81526020017f57656c6c6e65737320706f6c69637900000000000000000000000000000000008152508152602001600581526020016019815260200162200b208152602001600481526020016040518060400160405280600581526020017f54202620430000000000000000000000000000000000000000000000000000008152508152602001600060028111156200036c576200036b62000e64565b5b81525090806001815401808255809150506001900390600052602060002090600902016000909190919091506000820151816000019080519060200190620003b692919062000bfe565b506020820151816001019080519060200190620003d592919062000c8f565b506040820151816002019080519060200190620003f492919062000bfe565b50606082015181600301556080820151816004015560a0820151816005015560c0820151816006015560e08201518160070190805190602001906200043b92919062000bfe565b506101008201518160080160006101000a81548160ff021916908360028111156200046b576200046a62000e64565b5b0217905550505060026040518061012001604052806040518060400160405280600681526020017f53696c766572000000000000000000000000000000000000000000000000000081525081526020018381526020016040518060400160405280600d81526020017f53696c76657220706f6c696379000000000000000000000000000000000000008152508152602001600581526020016019815260200162030d408152602001600481526020016040518060400160405280600581526020017f54202620430000000000000000000000000000000000000000000000000000008152508152602001600060028111156200056c576200056b62000e64565b5b81525090806001815401808255809150506001900390600052602060002090600902016000909190919091506000820151816000019080519060200190620005b692919062000bfe565b506020820151816001019080519060200190620005d592919062000c8f565b506040820151816002019080519060200190620005f492919062000bfe565b50606082015181600301556080820151816004015560a0820151816005015560c0820151816006015560e08201518160070190805190602001906200063b92919062000bfe565b506101008201518160080160006101000a81548160ff021916908360028111156200066b576200066a62000e64565b5b0217905550505060026040518061012001604052806040518060400160405280600481526020017f476f6c640000000000000000000000000000000000000000000000000000000081525081526020018381526020016040518060400160405280600b81526020017f476f6c6420706f6c69637900000000000000000000000000000000000000000081525081526020016005815260200160198152602001620493e08152602001600481526020016040518060400160405280600581526020017f54202620430000000000000000000000000000000000000000000000000000008152508152602001600060028111156200076c576200076b62000e64565b5b81525090806001815401808255809150506001900390600052602060002090600902016000909190919091506000820151816000019080519060200190620007b692919062000bfe565b506020820151816001019080519060200190620007d592919062000c8f565b506040820151816002019080519060200190620007f492919062000bfe565b50606082015181600301556080820151816004015560a0820151816005015560c0820151816006015560e08201518160070190805190602001906200083b92919062000bfe565b506101008201518160080160006101000a81548160ff021916908360028111156200086b576200086a62000e64565b5b0217905550505060026040518061012001604052806040518060400160405280600881526020017f506c6174696e756d00000000000000000000000000000000000000000000000081525081526020018381526020016040518060400160405280600f81526020017f506c6174696e756d20706f6c69637900000000000000000000000000000000008152508152602001600581526020016019815260200162061a808152602001600481526020016040518060400160405280600581526020017f54202620430000000000000000000000000000000000000000000000000000008152508152602001600060028111156200096c576200096b62000e64565b5b81525090806001815401808255809150506001900390600052602060002090600902016000909190919091506000820151816000019080519060200190620009b692919062000bfe565b506020820151816001019080519060200190620009d592919062000c8f565b506040820151816002019080519060200190620009f492919062000bfe565b50606082015181600301556080820151816004015560a0820151816005015560c0820151816006015560e082015181600701908051906020019062000a3b92919062000bfe565b506101008201518160080160006101000a81548160ff0219169083600281111562000a6b5762000a6a62000e64565b5b021790555050505073d4a33860578de61dbabdc8bfdb98fd742fa7028e600460006101000a81548173ffffffffffffffffffffffffffffffffffffffff021916908373ffffffffffffffffffffffffffffffffffffffff16021790555062000f6a565b3373ffffffffffffffffffffffffffffffffffffffff168173ffffffffffffffffffffffffffffffffffffffff16141562000b40576040517f08c379a000000000000000000000000000000000000000000000000000000000815260040162000b379062000ee3565b60405180910390fd5b80600160006101000a81548173ffffffffffffffffffffffffffffffffffffffff021916908373ffffffffffffffffffffffffffffffffffffffff1602179055508073ffffffffffffffffffffffffffffffffffffffff1660008054906101000a900473ffffffffffffffffffffffffffffffffffffffff1673ffffffffffffffffffffffffffffffffffffffff167fed8889f560326eb138920d842192f0eb3dd22b4f139c87a2c57538e05bae127860405160405180910390a350565b82805462000c0c9062000f34565b90600052602060002090601f01602090048101928262000c30576000855562000c7c565b82601f1062000c4b57805160ff191683800117855562000c7c565b8280016001018555821562000c7c579182015b8281111562000c7b57825182559160200191906001019062000c5e565b5b50905062000c8b919062000cf6565b5090565b82805482825590600052602060002090810192821562000ce3579160200282015b8281111562000ce257825182908051906020019062000cd192919062000bfe565b509160200191906001019062000cb0565b5b50905062000cf2919062000d15565b5090565b5b8082111562000d1157600081600090555060010162000cf7565b5090565b5b8082111562000d39576000818162000d2f919062000d3d565b5060010162000d16565b5090565b50805462000d4b9062000f34565b6000825580601f1062000d5f575062000d80565b601f01602090049060005260206000209081019062000d7f919062000cf6565b5b50565b600082825260208201905092915050565b7f43616e6e6f7420736574206f776e657220746f207a65726f0000000000000000600082015250565b600062000dcc60188362000d83565b915062000dd98262000d94565b602082019050919050565b6000602082019050818103600083015262000dff8162000dbd565b9050919050565b7f4e487b7100000000000000000000000000000000000000000000000000000000600052604160045260246000fd5b7f4e487b7100000000000000000000000000000000000000000000000000000000600052603260045260246000fd5b7f4e487b7100000000000000000000000000000000000000000000000000000000600052602160045260246000fd5b7f43616e6e6f74207472616e7366657220746f2073656c66000000000000000000600082015250565b600062000ecb60178362000d83565b915062000ed88262000e93565b602082019050919050565b6000602082019050818103600083015262000efe8162000ebc565b9050919050565b7f4e487b7100000000000000000000000000000000000000000000000000000000600052602260045260246000fd5b6000600282049050600182168062000f4d57607f821691505b6020821081141562000f645762000f6362000f05565b5b50919050565b6147ad8062000f7a6000396000f3fe6080604052600436106101025760003560e01c80635d6a4413116100955780638272f0d6116100645780638272f0d61461034b5780638da5cb5b14610388578063994c9051146103b3578063f2fde38b146103f0578063fc7f23481461041957610109565b80635d6a44131461027d57806360dd5f90146102ba57806379ba5097146102f75780637a5b249b1461030e57610109565b8063457e5521116100d1578063457e5521146101a85780634ca03684146101d357806353bb073e1461021057806357e2c0f51461024057610109565b806312065fe01461010b5780633b47a9ac146101365780633ccfd60b146101615780634364b26e1461017857610109565b3661010957005b005b34801561011757600080fd5b50610120610456565b60405161012d9190612fdb565b60405180910390f35b34801561014257600080fd5b5061014b61045e565b60405161015891906132cf565b60405180910390f35b34801561016d57600080fd5b506101766106ba565b005b610192600480360381019061018d9190613331565b610719565b60405161019f9190613379565b60405180910390f35b3480156101b457600080fd5b506101bd610a98565b6040516101ca91906135f2565b60405180910390f35b3480156101df57600080fd5b506101fa60048036038101906101f5919061369e565b610dea565b6040516102079190613379565b60405180910390f35b61022a60048036038101906102259190613723565b611257565b6040516102379190613379565b60405180910390f35b34801561024c57600080fd5b5061026760048036038101906102629190613331565b61155b565b6040516102749190613379565b60405180910390f35b34801561028957600080fd5b506102a4600480360381019061029f919061381b565b611676565b6040516102b191906132cf565b60405180910390f35b3480156102c657600080fd5b506102e160048036038101906102dc9190613848565b6118d4565b6040516102ee919061396f565b60405180910390f35b34801561030357600080fd5b5061030c611ce7565b005b34801561031a57600080fd5b5061033560048036038101906103309190613331565b611e7c565b6040516103429190612fdb565b60405180910390f35b34801561035757600080fd5b50610372600480360381019061036d9190613991565b611eba565b60405161037f9190613379565b60405180910390f35b34801561039457600080fd5b5061039d612290565b6040516103aa91906139e0565b60405180910390f35b3480156103bf57600080fd5b506103da60048036038101906103d59190613723565b6122b9565b6040516103e79190612fdb565b60405180910390f35b3480156103fc57600080fd5b506104176004803603810190610412919061381b565b612435565b005b34801561042557600080fd5b50610440600480360381019061043b9190613c0c565b612449565b60405161044d9190613379565b60405180910390f35b600047905090565b60606000600360003373ffffffffffffffffffffffffffffffffffffffff1673ffffffffffffffffffffffffffffffffffffffff16815260200190815260200160002080549050116104e5576040517f08c379a00000000000000000000000000000000000000000000000000000000081526004016104dc90613d9d565b60405180910390fd5b600360003373ffffffffffffffffffffffffffffffffffffffff1673ffffffffffffffffffffffffffffffffffffffff168152602001908152602001600020805480602002602001604051908101604052809291908181526020016000905b828210156106b157838290600052602060002090600802016040518061010001604052908160008201805461057890613dec565b80601f01602080910402602001604051908101604052809291908181526020018280546105a490613dec565b80156105f15780601f106105c6576101008083540402835291602001916105f1565b820191906000526020600020905b8154815290600101906020018083116105d457829003601f168201915b5050505050815260200160018201548152602001600282015481526020016003820160009054906101000a900460ff166002811115610633576106326130ca565b5b6002811115610645576106446130ca565b5b81526020016004820154815260200160058201548152602001600682015481526020016007820160009054906101000a900460ff16600281111561068c5761068b6130ca565b5b600281111561069e5761069d6130ca565b5b8152505081526020019060010190610544565b50505050905090565b6106c26127b6565b6106ca612290565b73ffffffffffffffffffffffffffffffffffffffff166108fc6106eb610456565b9081150290604051600060405180830381858888f19350505050158015610716573d6000803e3d6000fd5b50565b6000600360003373ffffffffffffffffffffffffffffffffffffffff1673ffffffffffffffffffffffffffffffffffffffff16815260200190815260200160002080549050821061079f576040517f08c379a000000000000000000000000000000000000000000000000000000000815260040161079690613e6a565b60405180910390fd5b6000600360003373ffffffffffffffffffffffffffffffffffffffff1673ffffffffffffffffffffffffffffffffffffffff16815260200190815260200160002083815481106107f2576107f1613e8a565b5b90600052602060002090600802016040518061010001604052908160008201805461081c90613dec565b80601f016020809104026020016040519081016040528092919081815260200182805461084890613dec565b80156108955780601f1061086a57610100808354040283529160200191610895565b820191906000526020600020905b81548152906001019060200180831161087857829003601f168201915b5050505050815260200160018201548152602001600282015481526020016003820160009054906101000a900460ff1660028111156108d7576108d66130ca565b5b60028111156108e9576108e86130ca565b5b81526020016004820154815260200160058201548152602001600682015481526020016007820160009054906101000a900460ff1660028111156109305761092f6130ca565b5b6002811115610942576109416130ca565b5b8152505090508060a0015134101561098f576040517f08c379a000000000000000000000000000000000000000000000000000000000815260040161098690613f05565b60405180910390fd5b6109d26040518060400160405280601f81526020017f7472616e7366657272696e672025732077656920746f20636f6e746163742e008152508260a00151612846565b3073ffffffffffffffffffffffffffffffffffffffff166108fc8260a001519081150290604051600060405180830381858888f19350505050610a1457600080fd5b8060a001518160c00151610a289190613f54565b600360003373ffffffffffffffffffffffffffffffffffffffff1673ffffffffffffffffffffffffffffffffffffffff1681526020019081526020016000208481548110610a7957610a78613e8a565b5b9060005260206000209060080201600601819055506001915050919050565b60606002805480602002602001604051908101604052809291908181526020016000905b82821015610de1578382906000526020600020906009020160405180610120016040529081600082018054610af090613dec565b80601f0160208091040260200160405190810160405280929190818152602001828054610b1c90613dec565b8015610b695780601f10610b3e57610100808354040283529160200191610b69565b820191906000526020600020905b815481529060010190602001808311610b4c57829003601f168201915b5050505050815260200160018201805480602002602001604051908101604052809291908181526020016000905b82821015610c43578382906000526020600020018054610bb690613dec565b80601f0160208091040260200160405190810160405280929190818152602001828054610be290613dec565b8015610c2f5780601f10610c0457610100808354040283529160200191610c2f565b820191906000526020600020905b815481529060010190602001808311610c1257829003601f168201915b505050505081526020019060010190610b97565b505050508152602001600282018054610c5b90613dec565b80601f0160208091040260200160405190810160405280929190818152602001828054610c8790613dec565b8015610cd45780601f10610ca957610100808354040283529160200191610cd4565b820191906000526020600020905b815481529060010190602001808311610cb757829003601f168201915b5050505050815260200160038201548152602001600482015481526020016005820154815260200160068201548152602001600782018054610d1590613dec565b80601f0160208091040260200160405190810160405280929190818152602001828054610d4190613dec565b8015610d8e5780601f10610d6357610100808354040283529160200191610d8e565b820191906000526020600020905b815481529060010190602001808311610d7157829003601f168201915b505050505081526020016008820160009054906101000a900460ff166002811115610dbc57610dbb6130ca565b5b6002811115610dce57610dcd6130ca565b5b8152505081526020019060010190610abc565b50505050905090565b6000610df46127b6565b6000610e0085856128e2565b9050600060028281548110610e1857610e17613e8a565b5b906000526020600020906009020160405180610120016040529081600082018054610e4290613dec565b80601f0160208091040260200160405190810160405280929190818152602001828054610e6e90613dec565b8015610ebb5780601f10610e9057610100808354040283529160200191610ebb565b820191906000526020600020905b815481529060010190602001808311610e9e57829003601f168201915b5050505050815260200160018201805480602002602001604051908101604052809291908181526020016000905b82821015610f95578382906000526020600020018054610f0890613dec565b80601f0160208091040260200160405190810160405280929190818152602001828054610f3490613dec565b8015610f815780601f10610f5657610100808354040283529160200191610f81565b820191906000526020600020905b815481529060010190602001808311610f6457829003601f168201915b505050505081526020019060010190610ee9565b505050508152602001600282018054610fad90613dec565b80601f0160208091040260200160405190810160405280929190818152602001828054610fd990613dec565b80156110265780601f10610ffb57610100808354040283529160200191611026565b820191906000526020600020905b81548152906001019060200180831161100957829003601f168201915b505050505081526020016003820154815260200160048201548152602001600582015481526020016006820154815260200160078201805461106790613dec565b80601f016020809104026020016040519081016040528092919081815260200182805461109390613dec565b80156110e05780601f106110b5576101008083540402835291602001916110e0565b820191906000526020600020905b8154815290600101906020018083116110c357829003601f168201915b505050505081526020016008820160009054906101000a900460ff16600281111561110e5761110d6130ca565b5b60028111156111205761111f6130ca565b5b81525050905083816101000190600281111561113f5761113e6130ca565b5b90816002811115611153576111526130ca565b5b81525050806002838154811061116c5761116b613e8a565b5b90600052602060002090600902016000820151816000019080519060200190611196929190612dfd565b5060208201518160010190805190602001906111b3929190612e83565b5060408201518160020190805190602001906111d0929190612dfd565b50606082015181600301556080820151816004015560a0820151816005015560c0820151816006015560e0820151816007019080519060200190611215929190612dfd565b506101008201518160080160006101000a81548160ff02191690836002811115611242576112416130ca565b5b02179055509050506001925050509392505050565b6000868685600061126884846118d4565b90508060a001518210156112b1576040517f08c379a00000000000000000000000000000000000000000000000000000000081526004016112a890613ff6565b60405180910390fd5b60006112c96112c48d8d8d8d8d8d6122b9565b6129d3565b9050600066038d7ea4c68000826112e09190614016565b905080341015611325576040517f08c379a000000000000000000000000000000000000000000000000000000000815260040161131c906140e2565b60405180910390fd5b61134760405180606001604052806021815260200161470f6021913983612846565b3073ffffffffffffffffffffffffffffffffffffffff166108fc829081150290604051600060405180830381858888f1935050505061138557600080fd5b60006040518061010001604052808f8f8080601f016020809104026020016040519081016040528093929190818152602001838380828437600081840152601f19601f8201169050808301925050505050505081526020018d81526020018c81526020018b60028111156113fc576113fb6130ca565b5b81526020018a815260200183815260200183815260200160006002811115611427576114266130ca565b5b8152509050600360003373ffffffffffffffffffffffffffffffffffffffff1673ffffffffffffffffffffffffffffffffffffffff16815260200190815260200160002081908060018154018082558091505060019003906000526020600020906008020160009091909190915060008201518160000190805190602001906114b1929190612dfd565b50602082015181600101556040820151816002015560608201518160030160006101000a81548160ff021916908360028111156114f1576114f06130ca565b5b02179055506080820151816004015560a0820151816005015560c0820151816006015560e08201518160070160006101000a81548160ff0219169083600281111561153f5761153e6130ca565b5b0217905550505060019750505050505050509695505050505050565b600080600360003373ffffffffffffffffffffffffffffffffffffffff1673ffffffffffffffffffffffffffffffffffffffff16815260200190815260200160002080549050116115e1576040517f08c379a00000000000000000000000000000000000000000000000000000000081526004016115d890613d9d565b60405180910390fd5b600360003373ffffffffffffffffffffffffffffffffffffffff1673ffffffffffffffffffffffffffffffffffffffff168152602001908152602001600020805490508210611665576040517f08c379a000000000000000000000000000000000000000000000000000000000815260040161165c90613e6a565b60405180910390fd5b61166f3383612a03565b9050919050565b60606000600360003373ffffffffffffffffffffffffffffffffffffffff1673ffffffffffffffffffffffffffffffffffffffff16815260200190815260200160002080549050116116fd576040517f08c379a00000000000000000000000000000000000000000000000000000000081526004016116f490613d9d565b60405180910390fd5b600360008373ffffffffffffffffffffffffffffffffffffffff1673ffffffffffffffffffffffffffffffffffffffff168152602001908152602001600020805480602002602001604051908101604052809291908181526020016000905b828210156118c957838290600052602060002090600802016040518061010001604052908160008201805461179090613dec565b80601f01602080910402602001604051908101604052809291908181526020018280546117bc90613dec565b80156118095780601f106117de57610100808354040283529160200191611809565b820191906000526020600020905b8154815290600101906020018083116117ec57829003601f168201915b5050505050815260200160018201548152602001600282015481526020016003820160009054906101000a900460ff16600281111561184b5761184a6130ca565b5b600281111561185d5761185c6130ca565b5b81526020016004820154815260200160058201548152602001600682015481526020016007820160009054906101000a900460ff1660028111156118a4576118a36130ca565b5b60028111156118b6576118b56130ca565b5b815250508152602001906001019061175c565b505050509050919050565b6118dc612ee3565b60005b600280549050811015611ca15760028181548110611900576118ff613e8a565b5b906000526020600020906009020160000160405160200161192191906141a1565b60405160208183030381529060405280519060200120848460405160200161194a9291906141dd565b604051602081830303815290604052805190602001201415611c8e576002818154811061197a57611979613e8a565b5b9060005260206000209060090201604051806101200160405290816000820180546119a490613dec565b80601f01602080910402602001604051908101604052809291908181526020018280546119d090613dec565b8015611a1d5780601f106119f257610100808354040283529160200191611a1d565b820191906000526020600020905b815481529060010190602001808311611a0057829003601f168201915b5050505050815260200160018201805480602002602001604051908101604052809291908181526020016000905b82821015611af7578382906000526020600020018054611a6a90613dec565b80601f0160208091040260200160405190810160405280929190818152602001828054611a9690613dec565b8015611ae35780601f10611ab857610100808354040283529160200191611ae3565b820191906000526020600020905b815481529060010190602001808311611ac657829003601f168201915b505050505081526020019060010190611a4b565b505050508152602001600282018054611b0f90613dec565b80601f0160208091040260200160405190810160405280929190818152602001828054611b3b90613dec565b8015611b885780601f10611b5d57610100808354040283529160200191611b88565b820191906000526020600020905b815481529060010190602001808311611b6b57829003601f168201915b5050505050815260200160038201548152602001600482015481526020016005820154815260200160068201548152602001600782018054611bc990613dec565b80601f0160208091040260200160405190810160405280929190818152602001828054611bf590613dec565b8015611c425780601f10611c1757610100808354040283529160200191611c42565b820191906000526020600020905b815481529060010190602001808311611c2557829003601f168201915b505050505081526020016008820160009054906101000a900460ff166002811115611c7057611c6f6130ca565b5b6002811115611c8257611c816130ca565b5b81525050915050611ce1565b8080611c99906141f6565b9150506118df565b5082826040517fbe78613c000000000000000000000000000000000000000000000000000000008152600401611cd892919061426c565b60405180910390fd5b92915050565b600160009054906101000a900473ffffffffffffffffffffffffffffffffffffffff1673ffffffffffffffffffffffffffffffffffffffff163373ffffffffffffffffffffffffffffffffffffffff1614611d77576040517f08c379a0000000000000000000000000000000000000000000000000000000008152600401611d6e906142dc565b60405180910390fd5b60008060009054906101000a900473ffffffffffffffffffffffffffffffffffffffff169050336000806101000a81548173ffffffffffffffffffffffffffffffffffffffff021916908373ffffffffffffffffffffffffffffffffffffffff1602179055506000600160006101000a81548173ffffffffffffffffffffffffffffffffffffffff021916908373ffffffffffffffffffffffffffffffffffffffff1602179055503373ffffffffffffffffffffffffffffffffffffffff168173ffffffffffffffffffffffffffffffffffffffff167f8be0079c531659141344cd1fd0a4f28419497f9722a3daafe3b4186f6b6457e060405160405180910390a350565b600080611e87612aa3565b9050620f4240816305f5e10085611e9e9190614016565b611ea8919061432b565b611eb29190614016565b915050919050565b6000611ec46127b6565b6000600360003373ffffffffffffffffffffffffffffffffffffffff1673ffffffffffffffffffffffffffffffffffffffff1681526020019081526020016000208054905011611f49576040517f08c379a0000000000000000000000000000000000000000000000000000000008152600401611f4090613d9d565b60405180910390fd5b611f538383612a03565b611f92576040517f08c379a0000000000000000000000000000000000000000000000000000000008152600401611f89906143a8565b60405180910390fd5b6000600360003373ffffffffffffffffffffffffffffffffffffffff1673ffffffffffffffffffffffffffffffffffffffff1681526020019081526020016000208381548110611fe557611fe4613e8a565b5b90600052602060002090600802016040518061010001604052908160008201805461200f90613dec565b80601f016020809104026020016040519081016040528092919081815260200182805461203b90613dec565b80156120885780601f1061205d57610100808354040283529160200191612088565b820191906000526020600020905b81548152906001019060200180831161206b57829003601f168201915b5050505050815260200160018201548152602001600282015481526020016003820160009054906101000a900460ff1660028111156120ca576120c96130ca565b5b60028111156120dc576120db6130ca565b5b81526020016004820154815260200160058201548152602001600682015481526020016007820160009054906101000a900460ff166002811115612123576121226130ca565b5b6002811115612135576121346130ca565b5b8152505090508060c00151612148610456565b1015612189576040517f08c379a00000000000000000000000000000000000000000000000000000000081526004016121809061443a565b60405180910390fd5b6121af604051806060016040528060258152602001614730602591398260c00151612846565b8373ffffffffffffffffffffffffffffffffffffffff166108fc8260c001519081150290604051600060405180830381858888f193505050501580156121f9573d6000803e3d6000fd5b506002600360008673ffffffffffffffffffffffffffffffffffffffff1673ffffffffffffffffffffffffffffffffffffffff168152602001908152602001600020848154811061224d5761224c613e8a565b5b906000526020600020906008020160070160006101000a81548160ff021916908360028111156122805761227f6130ca565b5b0217905550600191505092915050565b60008060009054906101000a900473ffffffffffffffffffffffffffffffffffffffff16905090565b600086868560006122ca84846118d4565b90508060a00151821015612313576040517f08c379a000000000000000000000000000000000000000000000000000000000815260040161230a90613ff6565b60405180910390fd5b6000606460028a6123249190614016565b61232e919061432b565b90506000806002811115612345576123446130ca565b5b896002811115612358576123576130ca565b5b1415612367576002905061239a565b6001600281111561237b5761237a6130ca565b5b89600281111561238e5761238d6130ca565b5b141561239957600190505b5b6000601e8910156123aa57600290505b6000600f8d11156123ba57600190505b606481856123c89190614016565b6123d2919061432b565b606483866123e09190614016565b6123ea919061432b565b606485876123f89190614016565b612402919061432b565b8661240d919061445a565b612417919061445a565b612421919061445a565b985050505050505050509695505050505050565b61243d6127b6565b61244681612b53565b50565b60006124536127b6565b61245d8c8c612c80565b15612507576124c8604051806060016040528060238152602001614755602391398d8d8080601f016020809104026020016040519081016040528093929190818152602001838380828437600081840152601f19601f82011690508083019250505050505050612d38565b8b8b6040517f7a9a591d0000000000000000000000000000000000000000000000000000000081526004016124fe92919061426c565b60405180910390fd5b60026040518061012001604052808e8e8080601f016020809104026020016040519081016040528093929190818152602001838380828437600081840152601f19601f8201169050808301925050505050505081526020018c81526020018b8b8080601f016020809104026020016040519081016040528093929190818152602001838380828437600081840152601f19601f82011690508083019250505050505050815260200189815260200188815260200187815260200186815260200185858080601f016020809104026020016040519081016040528093929190818152602001838380828437600081840152601f19601f82011690508083019250505050505050815260200160006002811115612625576126246130ca565b5b8152509080600181540180825580915050600190039060005260206000209060090201600090919091909150600082015181600001908051906020019061266d929190612dfd565b50602082015181600101908051906020019061268a929190612e83565b5060408201518160020190805190602001906126a7929190612dfd565b50606082015181600301556080820151816004015560a0820151816005015560c0820151816006015560e08201518160070190805190602001906126ec929190612dfd565b506101008201518160080160006101000a81548160ff02191690836002811115612719576127186130ca565b5b021790555050506127a36040518060400160405280601a81526020017f506f6c6963792061646465642077697468206e616d652025732e0000000000008152508d8d8080601f016020809104026020016040519081016040528093929190818152602001838380828437600081840152601f19601f82011690508083019250505050505050612d38565b600190509b9a5050505050505050505050565b60008054906101000a900473ffffffffffffffffffffffffffffffffffffffff1673ffffffffffffffffffffffffffffffffffffffff163373ffffffffffffffffffffffffffffffffffffffff1614612844576040517f08c379a000000000000000000000000000000000000000000000000000000000815260040161283b906144da565b60405180910390fd5b565b6128de828260405160240161285c929190614533565b6040516020818303038152906040527fb60e72cc000000000000000000000000000000000000000000000000000000007bffffffffffffffffffffffffffffffffffffffffffffffffffffffff19166020820180517bffffffffffffffffffffffffffffffffffffffffffffffffffffffff8381831617835250505050612dd4565b5050565b600080600090505b60028054905081101561298d576002818154811061290b5761290a613e8a565b5b906000526020600020906009020160000160405160200161292c91906141a1565b6040516020818303038152906040528051906020012084846040516020016129559291906141dd565b60405160208183030381529060405280519060200120141561297a57809150506129cd565b8080612985906141f6565b9150506128ea565b5082826040517fbe78613c0000000000000000000000000000000000000000000000000000000081526004016129c492919061426c565b60405180910390fd5b92915050565b6000806129de612aa3565b9050806305f5e100846129f19190614016565b6129fb919061432b565b915050919050565b6000806002811115612a1857612a176130ca565b5b600360008573ffffffffffffffffffffffffffffffffffffffff1673ffffffffffffffffffffffffffffffffffffffff1681526020019081526020016000208381548110612a6957612a68613e8a565b5b906000526020600020906008020160070160009054906101000a900460ff166002811115612a9a57612a996130ca565b5b14905092915050565b600080600460009054906101000a900473ffffffffffffffffffffffffffffffffffffffff1673ffffffffffffffffffffffffffffffffffffffff1663feaf968c6040518163ffffffff1660e01b815260040160a06040518083038186803b158015612b0e57600080fd5b505afa158015612b22573d6000803e3d6000fd5b505050506040513d601f19601f82011682018060405250810190612b4691906145f0565b5050509150508091505090565b3373ffffffffffffffffffffffffffffffffffffffff168173ffffffffffffffffffffffffffffffffffffffff161415612bc2576040517f08c379a0000000000000000000000000000000000000000000000000000000008152600401612bb9906146b7565b60405180910390fd5b80600160006101000a81548173ffffffffffffffffffffffffffffffffffffffff021916908373ffffffffffffffffffffffffffffffffffffffff1602179055508073ffffffffffffffffffffffffffffffffffffffff1660008054906101000a900473ffffffffffffffffffffffffffffffffffffffff1673ffffffffffffffffffffffffffffffffffffffff167fed8889f560326eb138920d842192f0eb3dd22b4f139c87a2c57538e05bae127860405160405180910390a350565b600080600090505b600280549050811015612d2c5760028181548110612ca957612ca8613e8a565b5b9060005260206000209060090201600001604051602001612cca91906141a1565b604051602081830303815290604052805190602001208484604051602001612cf39291906141dd565b604051602081830303815290604052805190602001201415612d19576001915050612d32565b8080612d24906141f6565b915050612c88565b50600090505b92915050565b612dd08282604051602401612d4e9291906146d7565b6040516020818303038152906040527f4b5c4277000000000000000000000000000000000000000000000000000000007bffffffffffffffffffffffffffffffffffffffffffffffffffffffff19166020820180517bffffffffffffffffffffffffffffffffffffffffffffffffffffffff8381831617835250505050612dd4565b5050565b60008151905060006a636f6e736f6c652e6c6f679050602083016000808483855afa5050505050565b828054612e0990613dec565b90600052602060002090601f016020900481019282612e2b5760008555612e72565b82601f10612e4457805160ff1916838001178555612e72565b82800160010185558215612e72579182015b82811115612e71578251825591602001919060010190612e56565b5b509050612e7f9190612f41565b5090565b828054828255906000526020600020908101928215612ed2579160200282015b82811115612ed1578251829080519060200190612ec1929190612dfd565b5091602001919060010190612ea3565b5b509050612edf9190612f5e565b5090565b604051806101200160405280606081526020016060815260200160608152602001600081526020016000815260200160008152602001600081526020016060815260200160006002811115612f3b57612f3a6130ca565b5b81525090565b5b80821115612f5a576000816000905550600101612f42565b5090565b5b80821115612f7e5760008181612f759190612f82565b50600101612f5f565b5090565b508054612f8e90613dec565b6000825580601f10612fa05750612fbf565b601f016020900490600052602060002090810190612fbe9190612f41565b5b50565b6000819050919050565b612fd581612fc2565b82525050565b6000602082019050612ff06000830184612fcc565b92915050565b600081519050919050565b600082825260208201905092915050565b6000819050602082019050919050565b600081519050919050565b600082825260208201905092915050565b60005b8381101561305c578082015181840152602081019050613041565b8381111561306b576000848401525b50505050565b6000601f19601f8301169050919050565b600061308d82613022565b613097818561302d565b93506130a781856020860161303e565b6130b081613071565b840191505092915050565b6130c481612fc2565b82525050565b7f4e487b7100000000000000000000000000000000000000000000000000000000600052602160045260246000fd5b6003811061310a576131096130ca565b5b50565b600081905061311b826130f9565b919050565b600061312b8261310d565b9050919050565b61313b81613120565b82525050565b60038110613152576131516130ca565b5b50565b600081905061316382613141565b919050565b600061317382613155565b9050919050565b61318381613168565b82525050565b60006101008301600083015184820360008601526131a78282613082565b91505060208301516131bc60208601826130bb565b5060408301516131cf60408601826130bb565b5060608301516131e26060860182613132565b5060808301516131f560808601826130bb565b5060a083015161320860a08601826130bb565b5060c083015161321b60c08601826130bb565b5060e083015161322e60e086018261317a565b508091505092915050565b60006132458383613189565b905092915050565b6000602082019050919050565b600061326582612ff6565b61326f8185613001565b93508360208202850161328185613012565b8060005b858110156132bd578484038952815161329e8582613239565b94506132a98361324d565b925060208a01995050600181019050613285565b50829750879550505050505092915050565b600060208201905081810360008301526132e9818461325a565b905092915050565b6000604051905090565b600080fd5b600080fd5b61330e81612fc2565b811461331957600080fd5b50565b60008135905061332b81613305565b92915050565b600060208284031215613347576133466132fb565b5b60006133558482850161331c565b91505092915050565b60008115159050919050565b6133738161335e565b82525050565b600060208201905061338e600083018461336a565b92915050565b600081519050919050565b600082825260208201905092915050565b6000819050602082019050919050565b600081519050919050565b600082825260208201905092915050565b6000819050602082019050919050565b60006133f88383613082565b905092915050565b6000602082019050919050565b6000613418826133c0565b61342281856133cb565b935083602082028501613434856133dc565b8060005b85811015613470578484038952815161345185826133ec565b945061345c83613400565b925060208a01995050600181019050613438565b50829750879550505050505092915050565b60006101208301600083015184820360008601526134a08282613082565b915050602083015184820360208601526134ba828261340d565b915050604083015184820360408601526134d48282613082565b91505060608301516134e960608601826130bb565b5060808301516134fc60808601826130bb565b5060a083015161350f60a08601826130bb565b5060c083015161352260c08601826130bb565b5060e083015184820360e086015261353a8282613082565b91505061010083015161355161010086018261317a565b508091505092915050565b60006135688383613482565b905092915050565b6000602082019050919050565b600061358882613394565b613592818561339f565b9350836020820285016135a4856133b0565b8060005b858110156135e057848403895281516135c1858261355c565b94506135cc83613570565b925060208a019950506001810190506135a8565b50829750879550505050505092915050565b6000602082019050818103600083015261360c818461357d565b905092915050565b600080fd5b600080fd5b600080fd5b60008083601f84011261363957613638613614565b5b8235905067ffffffffffffffff81111561365657613655613619565b5b6020830191508360018202830111156136725761367161361e565b5b9250929050565b6003811061368657600080fd5b50565b60008135905061369881613679565b92915050565b6000806000604084860312156136b7576136b66132fb565b5b600084013567ffffffffffffffff8111156136d5576136d4613300565b5b6136e186828701613623565b935093505060206136f486828701613689565b9150509250925092565b6003811061370b57600080fd5b50565b60008135905061371d816136fe565b92915050565b60008060008060008060a087890312156137405761373f6132fb565b5b600087013567ffffffffffffffff81111561375e5761375d613300565b5b61376a89828a01613623565b9650965050602061377d89828a0161331c565b945050604061378e89828a0161331c565b935050606061379f89828a0161370e565b92505060806137b089828a0161331c565b9150509295509295509295565b600073ffffffffffffffffffffffffffffffffffffffff82169050919050565b60006137e8826137bd565b9050919050565b6137f8816137dd565b811461380357600080fd5b50565b600081359050613815816137ef565b92915050565b600060208284031215613831576138306132fb565b5b600061383f84828501613806565b91505092915050565b6000806020838503121561385f5761385e6132fb565b5b600083013567ffffffffffffffff81111561387d5761387c613300565b5b61388985828601613623565b92509250509250929050565b60006101208301600083015184820360008601526138b38282613082565b915050602083015184820360208601526138cd828261340d565b915050604083015184820360408601526138e78282613082565b91505060608301516138fc60608601826130bb565b50608083015161390f60808601826130bb565b5060a083015161392260a08601826130bb565b5060c083015161393560c08601826130bb565b5060e083015184820360e086015261394d8282613082565b91505061010083015161396461010086018261317a565b508091505092915050565b600060208201905081810360008301526139898184613895565b905092915050565b600080604083850312156139a8576139a76132fb565b5b60006139b685828601613806565b92505060206139c78582860161331c565b9150509250929050565b6139da816137dd565b82525050565b60006020820190506139f560008301846139d1565b92915050565b7f4e487b7100000000000000000000000000000000000000000000000000000000600052604160045260246000fd5b613a3382613071565b810181811067ffffffffffffffff82111715613a5257613a516139fb565b5b80604052505050565b6000613a656132f1565b9050613a718282613a2a565b919050565b600067ffffffffffffffff821115613a9157613a906139fb565b5b602082029050602081019050919050565b600080fd5b600067ffffffffffffffff821115613ac257613ac16139fb565b5b613acb82613071565b9050602081019050919050565b82818337600083830152505050565b6000613afa613af584613aa7565b613a5b565b905082815260208101848484011115613b1657613b15613aa2565b5b613b21848285613ad8565b509392505050565b600082601f830112613b3e57613b3d613614565b5b8135613b4e848260208601613ae7565b91505092915050565b6000613b6a613b6584613a76565b613a5b565b90508083825260208201905060208402830185811115613b8d57613b8c61361e565b5b835b81811015613bd457803567ffffffffffffffff811115613bb257613bb1613614565b5b808601613bbf8982613b29565b85526020850194505050602081019050613b8f565b5050509392505050565b600082601f830112613bf357613bf2613614565b5b8135613c03848260208601613b57565b91505092915050565b60008060008060008060008060008060006101008c8e031215613c3257613c316132fb565b5b60008c013567ffffffffffffffff811115613c5057613c4f613300565b5b613c5c8e828f01613623565b9b509b505060208c013567ffffffffffffffff811115613c7f57613c7e613300565b5b613c8b8e828f01613bde565b99505060408c013567ffffffffffffffff811115613cac57613cab613300565b5b613cb88e828f01613623565b98509850506060613ccb8e828f0161331c565b9650506080613cdc8e828f0161331c565b95505060a0613ced8e828f0161331c565b94505060c0613cfe8e828f0161331c565b93505060e08c013567ffffffffffffffff811115613d1f57613d1e613300565b5b613d2b8e828f01613623565b92509250509295989b509295989b9093969950565b600082825260208201905092915050565b7f4e6f74206120706f6c69637920686f6c6465722e000000000000000000000000600082015250565b6000613d87601483613d40565b9150613d9282613d51565b602082019050919050565b60006020820190508181036000830152613db681613d7a565b9050919050565b7f4e487b7100000000000000000000000000000000000000000000000000000000600052602260045260246000fd5b60006002820490506001821680613e0457607f821691505b60208210811415613e1857613e17613dbd565b5b50919050565b7f496e76616c696420737562736372697074696f6e2049642e0000000000000000600082015250565b6000613e54601883613d40565b9150613e5f82613e1e565b602082019050919050565b60006020820190508181036000830152613e8381613e47565b9050919050565b7f4e487b7100000000000000000000000000000000000000000000000000000000600052603260045260246000fd5b7f4e6f7420656e6f7567682077656920746f20706179207072656d696e756d0000600082015250565b6000613eef601e83613d40565b9150613efa82613eb9565b602082019050919050565b60006020820190508181036000830152613f1e81613ee2565b9050919050565b7f4e487b7100000000000000000000000000000000000000000000000000000000600052601160045260246000fd5b6000613f5f82612fc2565b9150613f6a83612fc2565b9250827fffffffffffffffffffffffffffffffffffffffffffffffffffffffffffffffff03821115613f9f57613f9e613f25565b5b828201905092915050565b7f73756d2061737375726564206973206e6f7420636f72726563742e0000000000600082015250565b6000613fe0601b83613d40565b9150613feb82613faa565b602082019050919050565b6000602082019050818103600083015261400f81613fd3565b9050919050565b600061402182612fc2565b915061402c83612fc2565b9250817fffffffffffffffffffffffffffffffffffffffffffffffffffffffffffffffff048311821515161561406557614064613f25565b5b828202905092915050565b7f4e6f7420656e6f7567682057656920746f20627579207468697320706f6c696360008201527f7900000000000000000000000000000000000000000000000000000000000000602082015250565b60006140cc602183613d40565b91506140d782614070565b604082019050919050565b600060208201905081810360008301526140fb816140bf565b9050919050565b600081905092915050565b60008190508160005260206000209050919050565b6000815461412f81613dec565b6141398186614102565b94506001821660008114614154576001811461416557614198565b60ff19831686528186019350614198565b61416e8561410d565b60005b8381101561419057815481890152600182019150602081019050614171565b838801955050505b50505092915050565b60006141ad8284614122565b915081905092915050565b60006141c48385614102565b93506141d1838584613ad8565b82840190509392505050565b60006141ea8284866141b8565b91508190509392505050565b600061420182612fc2565b91507fffffffffffffffffffffffffffffffffffffffffffffffffffffffffffffffff82141561423457614233613f25565b5b600182019050919050565b600061424b8385613d40565b9350614258838584613ad8565b61426183613071565b840190509392505050565b6000602082019050818103600083015261428781848661423f565b90509392505050565b7f4d7573742062652070726f706f736564206f776e657200000000000000000000600082015250565b60006142c6601683613d40565b91506142d182614290565b602082019050919050565b600060208201905081810360008301526142f5816142b9565b9050919050565b7f4e487b7100000000000000000000000000000000000000000000000000000000600052601260045260246000fd5b600061433682612fc2565b915061434183612fc2565b925082614351576143506142fc565b5b828204905092915050565b7f537562736372697074696f6e206973206e6f7420616374697665000000000000600082015250565b6000614392601a83613d40565b915061439d8261435c565b602082019050919050565b600060208201905081810360008301526143c181614385565b9050919050565b7f4e6f7420656e6f7567682062616c616e636520746f20736574746c6520636c6160008201527f696d2e0000000000000000000000000000000000000000000000000000000000602082015250565b6000614424602383613d40565b915061442f826143c8565b604082019050919050565b6000602082019050818103600083015261445381614417565b9050919050565b600061446582612fc2565b915061447083612fc2565b92508282101561448357614482613f25565b5b828203905092915050565b7f4f6e6c792063616c6c61626c65206279206f776e657200000000000000000000600082015250565b60006144c4601683613d40565b91506144cf8261448e565b602082019050919050565b600060208201905081810360008301526144f3816144b7565b9050919050565b600061450582613022565b61450f8185613d40565b935061451f81856020860161303e565b61452881613071565b840191505092915050565b6000604082019050818103600083015261454d81856144fa565b905061455c6020830184612fcc565b9392505050565b600069ffffffffffffffffffff82169050919050565b61458281614563565b811461458d57600080fd5b50565b60008151905061459f81614579565b92915050565b6000819050919050565b6145b8816145a5565b81146145c357600080fd5b50565b6000815190506145d5816145af565b92915050565b6000815190506145ea81613305565b92915050565b600080600080600060a0868803121561460c5761460b6132fb565b5b600061461a88828901614590565b955050602061462b888289016145c6565b945050604061463c888289016145db565b935050606061464d888289016145db565b925050608061465e88828901614590565b9150509295509295909350565b7f43616e6e6f74207472616e7366657220746f2073656c66000000000000000000600082015250565b60006146a1601783613d40565b91506146ac8261466b565b602082019050919050565b600060208201905081810360008301526146d081614694565b9050919050565b600060408201905081810360008301526146f181856144fa565b9050818103602083015261470581846144fa565b9050939250505056fe7472616e7366657272696e6720257320657468657220746f20636f6e746163742e7472616e7366657272696e672025732077656920746f20706f6c69637920686f6c6465722e506f6c6963792077697468206e616d6520257320616c7265616479206578697374732ea2646970667358221220dc48e1b30c2716a0f57afcd63033677ca72dd8d725b3bc4ca9ae4e5f9053091c64736f6c63430008090033",
  "linkReferences": {},
  "deployedLinkReferences": {}
}