{
  "_format": "hh-sol-artifact-1",
  "contractName": "Insurance",
  "sourceName": "contracts/Insurance.sol",
  "abi": [
    {
      "inputs": [
        {
          "internalType": "string",
          "name": "policyName",
          "type": "string"
        }
      ],
      "name": "DuplicatePolicy",
      "type": "error"
    },
    {
      "inputs": [
        {
          "internalType": "string",
          "name": "policyName",
          "type": "string"
        }
      ],
      "name": "PolicyNotFound",
      "type": "error"
    },
    {
      "anonymous": false,
      "inputs": [
        {
          "indexed": true,
          "internalType": "address",
          "name": "from",
          "type": "address"
        },
        {
          "indexed": true,
          "internalType": "address",
          "name": "to",
          "type": "address"
        }
      ],
      "name": "OwnershipTransferRequested",
      "type": "event"
    },
    {
      "anonymous": false,
      "inputs": [
        {
          "indexed": true,
          "internalType": "address",
          "name": "from",
          "type": "address"
        },
        {
          "indexed": true,
          "internalType": "address",
          "name": "to",
          "type": "address"
        }
      ],
      "name": "OwnershipTransferred",
      "type": "event"
    },
    {
      "anonymous": false,
      "inputs": [
        {
          "indexed": false,
          "internalType": "string",
          "name": "_policyName",
          "type": "string"
        }
      ],
      "name": "PolicyCreated",
      "type": "event"
    },
    {
      "stateMutability": "payable",
      "type": "fallback"
    },
    {
      "inputs": [],
      "name": "acceptOwnership",
      "outputs": [],
      "stateMutability": "nonpayable",
      "type": "function"
    },
    {
      "inputs": [
        {
          "internalType": "string",
          "name": "_policyName",
          "type": "string"
        },
        {
          "internalType": "string[]",
          "name": "_features",
          "type": "string[]"
        },
        {
          "internalType": "string",
          "name": "_description",
          "type": "string"
        },
        {
          "internalType": "uint256",
          "name": "_minTenure",
          "type": "uint256"
        },
        {
          "internalType": "uint256",
          "name": "_maxTenure",
          "type": "uint256"
        },
        {
          "internalType": "uint256",
          "name": "_minSumInsured",
          "type": "uint256"
        },
        {
          "internalType": "uint256",
          "name": "_basePremium",
          "type": "uint256"
        },
        {
          "internalType": "uint256",
          "name": "_yeildPercentage",
          "type": "uint256"
        }
      ],
      "name": "addPolicy",
      "outputs": [
        {
          "internalType": "bool",
          "name": "",
          "type": "bool"
        }
      ],
      "stateMutability": "nonpayable",
      "type": "function"
    },
    {
      "inputs": [
        {
          "internalType": "string",
          "name": "_policyName",
          "type": "string"
        },
        {
          "internalType": "uint256",
          "name": "_tenure",
          "type": "uint256"
        },
        {
          "internalType": "uint256",
          "name": "_sumInsured",
          "type": "uint256"
        },
        {
          "internalType": "enum Model.PremiumFrequancy",
          "name": "_premiumFrequency",
          "type": "uint8"
        },
        {
          "internalType": "uint256",
          "name": "_age",
          "type": "uint256"
        }
      ],
      "name": "buyPolicy",
      "outputs": [
        {
          "internalType": "bool",
          "name": "",
          "type": "bool"
        }
      ],
      "stateMutability": "payable",
      "type": "function"
    },
    {
      "inputs": [
        {
          "internalType": "string",
          "name": "_policyName",
          "type": "string"
        },
        {
          "internalType": "uint256",
          "name": "_tenure",
          "type": "uint256"
        },
        {
          "internalType": "uint256",
          "name": "_sumInsured",
          "type": "uint256"
        },
        {
          "internalType": "enum Model.PremiumFrequancy",
          "name": "_premiumFrequency",
          "type": "uint8"
        },
        {
          "internalType": "uint256",
          "name": "_age",
          "type": "uint256"
        }
      ],
      "name": "calculatePremium",
      "outputs": [
        {
          "internalType": "uint256",
          "name": "",
          "type": "uint256"
        }
      ],
      "stateMutability": "view",
      "type": "function"
    },
    {
      "inputs": [
        {
          "internalType": "string",
          "name": "_policyName",
          "type": "string"
        },
        {
          "internalType": "enum Model.Status",
          "name": "_status",
          "type": "uint8"
        }
      ],
      "name": "changePolicyStatus",
      "outputs": [
        {
          "internalType": "bool",
          "name": "",
          "type": "bool"
        }
      ],
      "stateMutability": "nonpayable",
      "type": "function"
    },
    {
      "inputs": [
        {
          "internalType": "address",
          "name": "_policyHolder",
          "type": "address"
        },
        {
          "internalType": "uint256",
          "name": "_subscriptionIndex",
          "type": "uint256"
        }
      ],
      "name": "claimSettlement",
      "outputs": [
        {
          "internalType": "bool",
          "name": "",
          "type": "bool"
        }
      ],
      "stateMutability": "nonpayable",
      "type": "function"
    },
    {
      "inputs": [],
      "name": "getAllPolicies",
      "outputs": [
        {
          "components": [
            {
              "internalType": "string",
              "name": "name",
              "type": "string"
            },
            {
              "internalType": "string[]",
              "name": "features",
              "type": "string[]"
            },
            {
              "internalType": "string",
              "name": "description",
              "type": "string"
            },
            {
              "internalType": "uint256",
              "name": "minTenure",
              "type": "uint256"
            },
            {
              "internalType": "uint256",
              "name": "maxTenure",
              "type": "uint256"
            },
            {
              "internalType": "uint256",
              "name": "minSumInsured",
              "type": "uint256"
            },
            {
              "internalType": "uint256",
              "name": "basePremium",
              "type": "uint256"
            },
            {
              "internalType": "uint256",
              "name": "yeildPercentage",
              "type": "uint256"
            },
            {
              "internalType": "enum Model.Status",
              "name": "status",
              "type": "uint8"
            }
          ],
          "internalType": "struct Model.Policy[]",
          "name": "_policies",
          "type": "tuple[]"
        }
      ],
      "stateMutability": "view",
      "type": "function"
    },
    {
      "inputs": [],
      "name": "getBalance",
      "outputs": [
        {
          "internalType": "uint256",
          "name": "",
          "type": "uint256"
        }
      ],
      "stateMutability": "view",
      "type": "function"
    },
    {
      "inputs": [],
      "name": "getBalanceInUSD",
      "outputs": [
        {
          "internalType": "uint256",
          "name": "",
          "type": "uint256"
        }
      ],
      "stateMutability": "view",
      "type": "function"
    },
    {
      "inputs": [
        {
          "internalType": "uint256",
          "name": "dollar",
          "type": "uint256"
        }
      ],
      "name": "getGweiForDollar",
      "outputs": [
        {
          "internalType": "uint256",
          "name": "",
          "type": "uint256"
        }
      ],
      "stateMutability": "view",
      "type": "function"
    },
    {
      "inputs": [
        {
          "internalType": "string",
          "name": "_policyName",
          "type": "string"
        }
      ],
      "name": "getPolicy",
      "outputs": [
        {
          "components": [
            {
              "internalType": "string",
              "name": "name",
              "type": "string"
            },
            {
              "internalType": "string[]",
              "name": "features",
              "type": "string[]"
            },
            {
              "internalType": "string",
              "name": "description",
              "type": "string"
            },
            {
              "internalType": "uint256",
              "name": "minTenure",
              "type": "uint256"
            },
            {
              "internalType": "uint256",
              "name": "maxTenure",
              "type": "uint256"
            },
            {
              "internalType": "uint256",
              "name": "minSumInsured",
              "type": "uint256"
            },
            {
              "internalType": "uint256",
              "name": "basePremium",
              "type": "uint256"
            },
            {
              "internalType": "uint256",
              "name": "yeildPercentage",
              "type": "uint256"
            },
            {
              "internalType": "enum Model.Status",
              "name": "status",
              "type": "uint8"
            }
          ],
          "internalType": "struct Model.Policy",
          "name": "",
          "type": "tuple"
        }
      ],
      "stateMutability": "view",
      "type": "function"
    },
    {
      "inputs": [],
      "name": "getSubscriptions",
      "outputs": [
        {
          "components": [
            {
              "internalType": "string",
              "name": "policyName",
              "type": "string"
            },
            {
              "internalType": "uint256",
              "name": "tenure",
              "type": "uint256"
            },
            {
              "internalType": "uint256",
              "name": "sumInsured",
              "type": "uint256"
            },
            {
              "internalType": "enum Model.PremiumFrequancy",
              "name": "premiumFrequency",
              "type": "uint8"
            },
            {
              "internalType": "uint256",
              "name": "personAge",
              "type": "uint256"
            },
            {
              "internalType": "uint256",
              "name": "premiumAmount",
              "type": "uint256"
            },
            {
              "internalType": "uint256",
              "name": "paidPremium",
              "type": "uint256"
            },
            {
              "internalType": "enum Model.Status",
              "name": "status",
              "type": "uint8"
            }
          ],
          "internalType": "struct Model.Subscription[]",
          "name": "",
          "type": "tuple[]"
        }
      ],
      "stateMutability": "view",
      "type": "function"
    },
    {
      "inputs": [
        {
          "internalType": "address",
          "name": "_policyHolder",
          "type": "address"
        }
      ],
      "name": "getSubscriptions",
      "outputs": [
        {
          "components": [
            {
              "internalType": "string",
              "name": "policyName",
              "type": "string"
            },
            {
              "internalType": "uint256",
              "name": "tenure",
              "type": "uint256"
            },
            {
              "internalType": "uint256",
              "name": "sumInsured",
              "type": "uint256"
            },
            {
              "internalType": "enum Model.PremiumFrequancy",
              "name": "premiumFrequency",
              "type": "uint8"
            },
            {
              "internalType": "uint256",
              "name": "personAge",
              "type": "uint256"
            },
            {
              "internalType": "uint256",
              "name": "premiumAmount",
              "type": "uint256"
            },
            {
              "internalType": "uint256",
              "name": "paidPremium",
              "type": "uint256"
            },
            {
              "internalType": "enum Model.Status",
              "name": "status",
              "type": "uint8"
            }
          ],
          "internalType": "struct Model.Subscription[]",
          "name": "",
          "type": "tuple[]"
        }
      ],
      "stateMutability": "view",
      "type": "function"
    },
    {
      "inputs": [
        {
          "internalType": "uint256",
          "name": "_subscriptionIndex",
          "type": "uint256"
        }
      ],
      "name": "isSubscriptionActive",
      "outputs": [
        {
          "internalType": "bool",
          "name": "",
          "type": "bool"
        }
      ],
      "stateMutability": "view",
      "type": "function"
    },
    {
      "inputs": [],
      "name": "owner",
      "outputs": [
        {
          "internalType": "address",
          "name": "",
          "type": "address"
        }
      ],
      "stateMutability": "view",
      "type": "function"
    },
    {
      "inputs": [
        {
          "internalType": "uint256",
          "name": "_subscriptionIndex",
          "type": "uint256"
        }
      ],
      "name": "payPremium",
      "outputs": [
        {
          "internalType": "bool",
          "name": "",
          "type": "bool"
        }
      ],
      "stateMutability": "payable",
      "type": "function"
    },
    {
      "inputs": [
        {
          "internalType": "address",
          "name": "to",
          "type": "address"
        }
      ],
      "name": "transferOwnership",
      "outputs": [],
      "stateMutability": "nonpayable",
      "type": "function"
    },
    {
      "inputs": [],
      "name": "withdraw",
      "outputs": [],
      "stateMutability": "nonpayable",
      "type": "function"
    },
    {
      "stateMutability": "payable",
      "type": "receive"
    }
  ],
  "bytecode": "0x60806040523480156200001157600080fd5b50338060008073ffffffffffffffffffffffffffffffffffffffff168273ffffffffffffffffffffffffffffffffffffffff16141562000088576040517f08c379a00000000000000000000000000000000000000000000000000000000081526004016200007f90620013a4565b60405180910390fd5b816000806101000a81548173ffffffffffffffffffffffffffffffffffffffff021916908373ffffffffffffffffffffffffffffffffffffffff160217905550600073ffffffffffffffffffffffffffffffffffffffff168173ffffffffffffffffffffffffffffffffffffffff16146200010f576200010e816200108e60201b60201c565b5b5050506000600667ffffffffffffffff811115620001325762000131620013c6565b5b6040519080825280602002602001820160405280156200016757816020015b6060815260200190600190039081620001515790505b5090506040518060400160405280601681526020017f436f76657273204d65646963616c20696c6c6e6573730000000000000000000081525081600081518110620001b757620001b6620013f5565b5b60200260200101819052506040518060400160405280601e81526020017f437269746963616c20686f73706974616c697a6174696f6e20636f7665720000815250816001815181106200020f576200020e620013f5565b5b60200260200101819052506040518060400160405280601381526020017f3130302520636c69616d20636f7665726167650000000000000000000000000081525081600281518110620002675762000266620013f5565b5b60200260200101819052506040518060400160405280601581526020017f4164646f6e20706c616e7320617661696c61626c65000000000000000000000081525081600381518110620002bf57620002be620013f5565b5b60200260200101819052506040518060400160405280601981526020017f466c657869626c6520636f766572616765206f7074696f6e730000000000000081525081600481518110620003175762000316620013f5565b5b60200260200101819052506040518060400160405280601c81526020017f4e6f6d696e656520726567697374726174696f6e206f7074696f6e7300000000815250816005815181106200036f576200036e620013f5565b5b602002602001018190525060026040518061012001604052806040518060400160405280600881526020017f57656c6c6e65737300000000000000000000000000000000000000000000000081525081526020018381526020016040518060400160405280601f81526020017f466f7220696e646976696475616c7320616e6420736d616c6c207465616d730081525081526020016005815260200160198152602001620186a0815260200160098152602001600481526020016000600281111562000440576200043f62001424565b5b815250908060018154018082558091505060019003906000526020600020906009020160009091909190915060008201518160000190805190602001906200048a929190620011be565b506020820151816001019080519060200190620004a99291906200124f565b506040820151816002019080519060200190620004c8929190620011be565b50606082015181600301556080820151816004015560a0820151816005015560c0820151816006015560e082015181600701556101008201518160080160006101000a81548160ff021916908360028111156200052a576200052962001424565b5b021790555050506040518060400160405280601381526020017f47657420617373757265642072657475726e7300000000000000000000000000815250816000815181106200057e576200057d620013f5565b5b60200260200101819052506040518060400160405280601581526020017f34252072657475726e206f6e206d61747572697479000000000000000000000081525081600181518110620005d657620005d5620013f5565b5b60200260200101819052506040518060400160405280601e81526020017f3278207061796d656e7420696e206163636964656e74616c2064656174680000815250816002815181106200062e576200062d620013f5565b5b60200260200101819052506040518060400160405280601581526020017f45617379207072656d69756e6d207061796d656e74000000000000000000000081525081600381518110620006865762000685620013f5565b5b60200260200101819052506040518060400160405280601481526020017f466c657869626c6520706c616e2074656e75726500000000000000000000000081525081600481518110620006de57620006dd620013f5565b5b60200260200101819052506040518060400160405280601c81526020017f4e6f6d696e656520726567697374726174696f6e206f7074696f6e730000000081525081600581518110620007365762000735620013f5565b5b602002602001018190525060026040518061012001604052806040518060400160405280600681526020017f53696c7665720000000000000000000000000000000000000000000000000000815250815260200183815260200160405180606001604052806023815260200162005af7602391398152602001600581526020016019815260200162030d408152602001601381526020016004815260200160006002811115620007eb57620007ea62001424565b5b8152509080600181540180825580915050600190039060005260206000209060090201600090919091909150600082015181600001908051906020019062000835929190620011be565b506020820151816001019080519060200190620008549291906200124f565b50604082015181600201908051906020019062000873929190620011be565b50606082015181600301556080820151816004015560a0820151816005015560c0820151816006015560e082015181600701556101008201518160080160006101000a81548160ff02191690836002811115620008d557620008d462001424565b5b021790555050506040518060400160405280601481526020017f53696c76657220706c616e2062656e656669747300000000000000000000000081525081600081518110620009295762000928620013f5565b5b60200260200101819052506040518060400160405280601781526020017f4d756c7469706c65206e6f6d696e6565206f7074696f6e00000000000000000081525081600181518110620009815762000980620013f5565b5b60200260200101819052506040518060400160405280601781526020017f507265206d61747572697479207769746864726177616c00000000000000000081525081600281518110620009d957620009d8620013f5565b5b60200260200101819052506040518060400160405280601681526020017f46616d696c7920706c616e7320617661696c61626c65000000000000000000008152508160038151811062000a315762000a30620013f5565b5b60200260200101819052506040518060400160405280601481526020017f4c6f616e20616761696e7374206465706f7369740000000000000000000000008152508160048151811062000a895762000a88620013f5565b5b60200260200101819052506040518060400160405280601081526020017f3125206869676865722072657475726e000000000000000000000000000000008152508160058151811062000ae15762000ae0620013f5565b5b602002602001018190525060026040518061012001604052806040518060400160405280600481526020017f476f6c6400000000000000000000000000000000000000000000000000000000815250815260200183815260200160405180606001604052806025815260200162005ad26025913981526020016005815260200160198152602001620493e0815260200160638152602001600481526020016000600281111562000b965762000b9562001424565b5b8152509080600181540180825580915050600190039060005260206000209060090201600090919091909150600082015181600001908051906020019062000be0929190620011be565b50602082015181600101908051906020019062000bff9291906200124f565b50604082015181600201908051906020019062000c1e929190620011be565b50606082015181600301556080820151816004015560a0820151816005015560c0820151816006015560e082015181600701556101008201518160080160006101000a81548160ff0219169083600281111562000c805762000c7f62001424565b5b021790555050506040518060400160405280601281526020017f476f6c6420706c616e2062656e656669747300000000000000000000000000008152508160008151811062000cd45762000cd3620013f5565b5b60200260200101819052506040518060400160405280601a81526020017f4d65646963616c20696e737572616e636520696e636c756465640000000000008152508160018151811062000d2c5762000d2b620013f5565b5b60200260200101819052506040518060400160405280601581526020017f4c617465207061796d656e74207761697665722a2a00000000000000000000008152508160028151811062000d845762000d83620013f5565b5b60200260200101819052506040518060400160405280601f81526020017f4f7074696f6e20746f2072656465706f736974206f6e206d61747572697479008152508160038151811062000ddc5762000ddb620013f5565b5b60200260200101819052506040518060400160405280601681526020017f456e746972652066616d696c7920636f766572616765000000000000000000008152508160048151811062000e345762000e33620013f5565b5b60200260200101819052506040518060400160405280601081526020017f3225206869676865722072657475726e000000000000000000000000000000008152508160058151811062000e8c5762000e8b620013f5565b5b602002602001018190525060026040518061012001604052806040518060400160405280600881526020017f506c6174696e756d000000000000000000000000000000000000000000000000815250815260200183815260200160405180606001604052806025815260200162005ad2602591398152602001600581526020016019815260200162061a80815260200160638152602001600581526020016000600281111562000f415762000f4062001424565b5b8152509080600181540180825580915050600190039060005260206000209060090201600090919091909150600082015181600001908051906020019062000f8b929190620011be565b50602082015181600101908051906020019062000faa9291906200124f565b50604082015181600201908051906020019062000fc9929190620011be565b50606082015181600301556080820151816004015560a0820151816005015560c0820151816006015560e082015181600701556101008201518160080160006101000a81548160ff021916908360028111156200102b576200102a62001424565b5b021790555050505073d4a33860578de61dbabdc8bfdb98fd742fa7028e600460006101000a81548173ffffffffffffffffffffffffffffffffffffffff021916908373ffffffffffffffffffffffffffffffffffffffff1602179055506200152a565b3373ffffffffffffffffffffffffffffffffffffffff168173ffffffffffffffffffffffffffffffffffffffff16141562001100576040517f08c379a0000000000000000000000000000000000000000000000000000000008152600401620010f790620014a3565b60405180910390fd5b80600160006101000a81548173ffffffffffffffffffffffffffffffffffffffff021916908373ffffffffffffffffffffffffffffffffffffffff1602179055508073ffffffffffffffffffffffffffffffffffffffff1660008054906101000a900473ffffffffffffffffffffffffffffffffffffffff1673ffffffffffffffffffffffffffffffffffffffff167fed8889f560326eb138920d842192f0eb3dd22b4f139c87a2c57538e05bae127860405160405180910390a350565b828054620011cc90620014f4565b90600052602060002090601f016020900481019282620011f057600085556200123c565b82601f106200120b57805160ff19168380011785556200123c565b828001600101855582156200123c579182015b828111156200123b5782518255916020019190600101906200121e565b5b5090506200124b9190620012b6565b5090565b828054828255906000526020600020908101928215620012a3579160200282015b82811115620012a257825182908051906020019062001291929190620011be565b509160200191906001019062001270565b5b509050620012b29190620012d5565b5090565b5b80821115620012d1576000816000905550600101620012b7565b5090565b5b80821115620012f95760008181620012ef9190620012fd565b50600101620012d6565b5090565b5080546200130b90620014f4565b6000825580601f106200131f575062001340565b601f0160209004906000526020600020908101906200133f9190620012b6565b5b50565b600082825260208201905092915050565b7f43616e6e6f7420736574206f776e657220746f207a65726f0000000000000000600082015250565b60006200138c60188362001343565b9150620013998262001354565b602082019050919050565b60006020820190508181036000830152620013bf816200137d565b9050919050565b7f4e487b7100000000000000000000000000000000000000000000000000000000600052604160045260246000fd5b7f4e487b7100000000000000000000000000000000000000000000000000000000600052603260045260246000fd5b7f4e487b7100000000000000000000000000000000000000000000000000000000600052602160045260246000fd5b7f43616e6e6f74207472616e7366657220746f2073656c66000000000000000000600082015250565b60006200148b60178362001343565b9150620014988262001453565b602082019050919050565b60006020820190508181036000830152620014be816200147c565b9050919050565b7f4e487b7100000000000000000000000000000000000000000000000000000000600052602260045260246000fd5b600060028204905060018216806200150d57607f821691505b60208210811415620015245762001523620014c5565b5b50919050565b614598806200153a6000396000f3fe60806040526004361061010d5760003560e01c80635d6a4413116100955780638272f0d6116100645780638272f0d6146103935780638da5cb5b146103d0578063994c9051146103fb578063ef64924914610438578063f2fde38b1461046357610114565b80635d6a4413146102c557806360dd5f901461030257806379ba50971461033f5780637a5b249b1461035657610114565b80634364b26e116100dc5780634364b26e146101c0578063457e5521146101f05780634ca036841461021b57806353bb073e1461025857806357e2c0f51461028857610114565b806312065fe0146101165780633b47a9ac146101415780633ccfd60b1461016c5780633fdf9c0a1461018357610114565b3661011457005b005b34801561012257600080fd5b5061012b61048c565b6040516101389190612df5565b60405180910390f35b34801561014d57600080fd5b50610156610494565b60405161016391906130e9565b60405180910390f35b34801561017857600080fd5b506101816106f0565b005b34801561018f57600080fd5b506101aa60048036038101906101a591906133c1565b61074f565b6040516101b791906134ef565b60405180910390f35b6101da60048036038101906101d5919061350a565b610a9d565b6040516101e791906134ef565b60405180910390f35b3480156101fc57600080fd5b50610205610e1c565b604051610212919061378e565b60405180910390f35b34801561022757600080fd5b50610242600480360381019061023d91906137d5565b6110e6565b60405161024f91906134ef565b60405180910390f35b610272600480360381019061026d919061385a565b6114b8565b60405161027f91906134ef565b60405180910390f35b34801561029457600080fd5b506102af60048036038101906102aa919061350a565b6117bc565b6040516102bc91906134ef565b60405180910390f35b3480156102d157600080fd5b506102ec60048036038101906102e79190613952565b6118d7565b6040516102f991906130e9565b60405180910390f35b34801561030e57600080fd5b506103296004803603810190610324919061397f565b611b35565b6040516103369190613a9f565b60405180910390f35b34801561034b57600080fd5b50610354611ec0565b005b34801561036257600080fd5b5061037d6004803603810190610378919061350a565b612055565b60405161038a9190612df5565b60405180910390f35b34801561039f57600080fd5b506103ba60048036038101906103b59190613ac1565b612093565b6040516103c791906134ef565b60405180910390f35b3480156103dc57600080fd5b506103e56123dc565b6040516103f29190613b10565b60405180910390f35b34801561040757600080fd5b50610422600480360381019061041d919061385a565b612405565b60405161042f9190612df5565b60405180910390f35b34801561044457600080fd5b5061044d612581565b60405161045a9190612df5565b60405180910390f35b34801561046f57600080fd5b5061048a60048036038101906104859190613952565b6125bc565b005b600047905090565b60606000600360003373ffffffffffffffffffffffffffffffffffffffff1673ffffffffffffffffffffffffffffffffffffffff168152602001908152602001600020805490501161051b576040517f08c379a000000000000000000000000000000000000000000000000000000000815260040161051290613b88565b60405180910390fd5b600360003373ffffffffffffffffffffffffffffffffffffffff1673ffffffffffffffffffffffffffffffffffffffff168152602001908152602001600020805480602002602001604051908101604052809291908181526020016000905b828210156106e75783829060005260206000209060080201604051806101000160405290816000820180546105ae90613bd7565b80601f01602080910402602001604051908101604052809291908181526020018280546105da90613bd7565b80156106275780601f106105fc57610100808354040283529160200191610627565b820191906000526020600020905b81548152906001019060200180831161060a57829003601f168201915b5050505050815260200160018201548152602001600282015481526020016003820160009054906101000a900460ff16600281111561066957610668612ee4565b5b600281111561067b5761067a612ee4565b5b81526020016004820154815260200160058201548152602001600682015481526020016007820160009054906101000a900460ff1660028111156106c2576106c1612ee4565b5b60028111156106d4576106d3612ee4565b5b815250508152602001906001019061057a565b50505050905090565b6106f86125d0565b6107006123dc565b73ffffffffffffffffffffffffffffffffffffffff166108fc61072161048c565b9081150290604051600060405180830381858888f1935050505015801561074c573d6000803e3d6000fd5b50565b60006107596125d0565b6107638b8b612660565b1561080d576107ce604051806060016040528060238152602001614540602391398c8c8080601f016020809104026020016040519081016040528093929190818152602001838380828437600081840152601f19601f82011690508083019250505050505050612718565b8a8a6040517f7a9a591d000000000000000000000000000000000000000000000000000000008152600401610804929190613c36565b60405180910390fd5b60026040518061012001604052808d8d8080601f016020809104026020016040519081016040528093929190818152602001838380828437600081840152601f19601f8201169050808301925050505050505081526020018b81526020018a8a8080601f016020809104026020016040519081016040528093929190818152602001838380828437600081840152601f19601f820116905080830192505050505050508152602001888152602001878152602001868152602001858152602001848152602001600060028111156108e7576108e6612ee4565b5b8152509080600181540180825580915050600190039060005260206000209060090201600090919091909150600082015181600001908051906020019061092f929190612c17565b50602082015181600101908051906020019061094c929190612c9d565b506040820151816002019080519060200190610969929190612c17565b50606082015181600301556080820151816004015560a0820151816005015560c0820151816006015560e082015181600701556101008201518160080160006101000a81548160ff021916908360028111156109c8576109c7612ee4565b5b02179055505050610a526040518060400160405280601a81526020017f506f6c6963792061646465642077697468206e616d652025732e0000000000008152508c8c8080601f016020809104026020016040519081016040528093929190818152602001838380828437600081840152601f19601f82011690508083019250505050505050612718565b7f9e300aedbe854f64a3620d6129ad526fbae3ebef59b0771de0023245a87223c88b8b604051610a83929190613c36565b60405180910390a1600190509a9950505050505050505050565b6000600360003373ffffffffffffffffffffffffffffffffffffffff1673ffffffffffffffffffffffffffffffffffffffff168152602001908152602001600020805490508210610b23576040517f08c379a0000000000000000000000000000000000000000000000000000000008152600401610b1a90613ca6565b60405180910390fd5b6000600360003373ffffffffffffffffffffffffffffffffffffffff1673ffffffffffffffffffffffffffffffffffffffff1681526020019081526020016000208381548110610b7657610b75613cc6565b5b906000526020600020906008020160405180610100016040529081600082018054610ba090613bd7565b80601f0160208091040260200160405190810160405280929190818152602001828054610bcc90613bd7565b8015610c195780601f10610bee57610100808354040283529160200191610c19565b820191906000526020600020905b815481529060010190602001808311610bfc57829003601f168201915b5050505050815260200160018201548152602001600282015481526020016003820160009054906101000a900460ff166002811115610c5b57610c5a612ee4565b5b6002811115610c6d57610c6c612ee4565b5b81526020016004820154815260200160058201548152602001600682015481526020016007820160009054906101000a900460ff166002811115610cb457610cb3612ee4565b5b6002811115610cc657610cc5612ee4565b5b8152505090508060a00151341015610d13576040517f08c379a0000000000000000000000000000000000000000000000000000000008152600401610d0a90613d41565b60405180910390fd5b610d566040518060400160405280601f81526020017f7472616e7366657272696e672025732077656920746f20636f6e746163742e008152508260a001516127b4565b3073ffffffffffffffffffffffffffffffffffffffff166108fc8260a001519081150290604051600060405180830381858888f19350505050610d9857600080fd5b8060a001518160c00151610dac9190613d90565b600360003373ffffffffffffffffffffffffffffffffffffffff1673ffffffffffffffffffffffffffffffffffffffff1681526020019081526020016000208481548110610dfd57610dfc613cc6565b5b9060005260206000209060080201600601819055506001915050919050565b60606002805480602002602001604051908101604052809291908181526020016000905b828210156110dd578382906000526020600020906009020160405180610120016040529081600082018054610e7490613bd7565b80601f0160208091040260200160405190810160405280929190818152602001828054610ea090613bd7565b8015610eed5780601f10610ec257610100808354040283529160200191610eed565b820191906000526020600020905b815481529060010190602001808311610ed057829003601f168201915b5050505050815260200160018201805480602002602001604051908101604052809291908181526020016000905b82821015610fc7578382906000526020600020018054610f3a90613bd7565b80601f0160208091040260200160405190810160405280929190818152602001828054610f6690613bd7565b8015610fb35780601f10610f8857610100808354040283529160200191610fb3565b820191906000526020600020905b815481529060010190602001808311610f9657829003601f168201915b505050505081526020019060010190610f1b565b505050508152602001600282018054610fdf90613bd7565b80601f016020809104026020016040519081016040528092919081815260200182805461100b90613bd7565b80156110585780601f1061102d57610100808354040283529160200191611058565b820191906000526020600020905b81548152906001019060200180831161103b57829003601f168201915b5050505050815260200160038201548152602001600482015481526020016005820154815260200160068201548152602001600782015481526020016008820160009054906101000a900460ff1660028111156110b8576110b7612ee4565b5b60028111156110ca576110c9612ee4565b5b8152505081526020019060010190610e40565b50505050905090565b60006110f06125d0565b60006110fc8585612850565b905060006002828154811061111457611113613cc6565b5b90600052602060002090600902016040518061012001604052908160008201805461113e90613bd7565b80601f016020809104026020016040519081016040528092919081815260200182805461116a90613bd7565b80156111b75780601f1061118c576101008083540402835291602001916111b7565b820191906000526020600020905b81548152906001019060200180831161119a57829003601f168201915b5050505050815260200160018201805480602002602001604051908101604052809291908181526020016000905b8282101561129157838290600052602060002001805461120490613bd7565b80601f016020809104026020016040519081016040528092919081815260200182805461123090613bd7565b801561127d5780601f106112525761010080835404028352916020019161127d565b820191906000526020600020905b81548152906001019060200180831161126057829003601f168201915b5050505050815260200190600101906111e5565b5050505081526020016002820180546112a990613bd7565b80601f01602080910402602001604051908101604052809291908181526020018280546112d590613bd7565b80156113225780601f106112f757610100808354040283529160200191611322565b820191906000526020600020905b81548152906001019060200180831161130557829003601f168201915b5050505050815260200160038201548152602001600482015481526020016005820154815260200160068201548152602001600782015481526020016008820160009054906101000a900460ff16600281111561138257611381612ee4565b5b600281111561139457611393612ee4565b5b8152505090508381610100019060028111156113b3576113b2612ee4565b5b908160028111156113c7576113c6612ee4565b5b8152505080600283815481106113e0576113df613cc6565b5b9060005260206000209060090201600082015181600001908051906020019061140a929190612c17565b506020820151816001019080519060200190611427929190612c9d565b506040820151816002019080519060200190611444929190612c17565b50606082015181600301556080820151816004015560a0820151816005015560c0820151816006015560e082015181600701556101008201518160080160006101000a81548160ff021916908360028111156114a3576114a2612ee4565b5b02179055509050506001925050509392505050565b600086868560006114c98484611b35565b90508060a00151821015611512576040517f08c379a000000000000000000000000000000000000000000000000000000000815260040161150990613e32565b60405180910390fd5b600061152a6115258d8d8d8d8d8d612405565b612941565b9050600066038d7ea4c68000826115419190613e52565b905080341015611586576040517f08c379a000000000000000000000000000000000000000000000000000000000815260040161157d90613f1e565b60405180910390fd5b6115a86040518060600160405280602181526020016144fa60219139836127b4565b3073ffffffffffffffffffffffffffffffffffffffff166108fc829081150290604051600060405180830381858888f193505050506115e657600080fd5b60006040518061010001604052808f8f8080601f016020809104026020016040519081016040528093929190818152602001838380828437600081840152601f19601f8201169050808301925050505050505081526020018d81526020018c81526020018b600281111561165d5761165c612ee4565b5b81526020018a81526020018381526020018381526020016000600281111561168857611687612ee4565b5b8152509050600360003373ffffffffffffffffffffffffffffffffffffffff1673ffffffffffffffffffffffffffffffffffffffff1681526020019081526020016000208190806001815401808255809150506001900390600052602060002090600802016000909190919091506000820151816000019080519060200190611712929190612c17565b50602082015181600101556040820151816002015560608201518160030160006101000a81548160ff0219169083600281111561175257611751612ee4565b5b02179055506080820151816004015560a0820151816005015560c0820151816006015560e08201518160070160006101000a81548160ff021916908360028111156117a05761179f612ee4565b5b0217905550505060019750505050505050509695505050505050565b600080600360003373ffffffffffffffffffffffffffffffffffffffff1673ffffffffffffffffffffffffffffffffffffffff1681526020019081526020016000208054905011611842576040517f08c379a000000000000000000000000000000000000000000000000000000000815260040161183990613b88565b60405180910390fd5b600360003373ffffffffffffffffffffffffffffffffffffffff1673ffffffffffffffffffffffffffffffffffffffff1681526020019081526020016000208054905082106118c6576040517f08c379a00000000000000000000000000000000000000000000000000000000081526004016118bd90613ca6565b60405180910390fd5b6118d03383612971565b9050919050565b60606000600360003373ffffffffffffffffffffffffffffffffffffffff1673ffffffffffffffffffffffffffffffffffffffff168152602001908152602001600020805490501161195e576040517f08c379a000000000000000000000000000000000000000000000000000000000815260040161195590613b88565b60405180910390fd5b600360008373ffffffffffffffffffffffffffffffffffffffff1673ffffffffffffffffffffffffffffffffffffffff168152602001908152602001600020805480602002602001604051908101604052809291908181526020016000905b82821015611b2a5783829060005260206000209060080201604051806101000160405290816000820180546119f190613bd7565b80601f0160208091040260200160405190810160405280929190818152602001828054611a1d90613bd7565b8015611a6a5780601f10611a3f57610100808354040283529160200191611a6a565b820191906000526020600020905b815481529060010190602001808311611a4d57829003601f168201915b5050505050815260200160018201548152602001600282015481526020016003820160009054906101000a900460ff166002811115611aac57611aab612ee4565b5b6002811115611abe57611abd612ee4565b5b81526020016004820154815260200160058201548152602001600682015481526020016007820160009054906101000a900460ff166002811115611b0557611b04612ee4565b5b6002811115611b1757611b16612ee4565b5b81525050815260200190600101906119bd565b505050509050919050565b611b3d612cfd565b60005b600280549050811015611e7a5760028181548110611b6157611b60613cc6565b5b9060005260206000209060090201600001604051602001611b829190613fdd565b604051602081830303815290604052805190602001208484604051602001611bab929190614019565b604051602081830303815290604052805190602001201415611e675760028181548110611bdb57611bda613cc6565b5b906000526020600020906009020160405180610120016040529081600082018054611c0590613bd7565b80601f0160208091040260200160405190810160405280929190818152602001828054611c3190613bd7565b8015611c7e5780601f10611c5357610100808354040283529160200191611c7e565b820191906000526020600020905b815481529060010190602001808311611c6157829003601f168201915b5050505050815260200160018201805480602002602001604051908101604052809291908181526020016000905b82821015611d58578382906000526020600020018054611ccb90613bd7565b80601f0160208091040260200160405190810160405280929190818152602001828054611cf790613bd7565b8015611d445780601f10611d1957610100808354040283529160200191611d44565b820191906000526020600020905b815481529060010190602001808311611d2757829003601f168201915b505050505081526020019060010190611cac565b505050508152602001600282018054611d7090613bd7565b80601f0160208091040260200160405190810160405280929190818152602001828054611d9c90613bd7565b8015611de95780601f10611dbe57610100808354040283529160200191611de9565b820191906000526020600020905b815481529060010190602001808311611dcc57829003601f168201915b5050505050815260200160038201548152602001600482015481526020016005820154815260200160068201548152602001600782015481526020016008820160009054906101000a900460ff166002811115611e4957611e48612ee4565b5b6002811115611e5b57611e5a612ee4565b5b81525050915050611eba565b8080611e7290614032565b915050611b40565b5082826040517fbe78613c000000000000000000000000000000000000000000000000000000008152600401611eb1929190613c36565b60405180910390fd5b92915050565b600160009054906101000a900473ffffffffffffffffffffffffffffffffffffffff1673ffffffffffffffffffffffffffffffffffffffff163373ffffffffffffffffffffffffffffffffffffffff1614611f50576040517f08c379a0000000000000000000000000000000000000000000000000000000008152600401611f47906140c7565b60405180910390fd5b60008060009054906101000a900473ffffffffffffffffffffffffffffffffffffffff169050336000806101000a81548173ffffffffffffffffffffffffffffffffffffffff021916908373ffffffffffffffffffffffffffffffffffffffff1602179055506000600160006101000a81548173ffffffffffffffffffffffffffffffffffffffff021916908373ffffffffffffffffffffffffffffffffffffffff1602179055503373ffffffffffffffffffffffffffffffffffffffff168173ffffffffffffffffffffffffffffffffffffffff167f8be0079c531659141344cd1fd0a4f28419497f9722a3daafe3b4186f6b6457e060405160405180910390a350565b600080612060612a11565b9050620f4240816305f5e100856120779190613e52565b6120819190614116565b61208b9190613e52565b915050919050565b600061209f8383612971565b6120de576040517f08c379a00000000000000000000000000000000000000000000000000000000081526004016120d590614193565b60405180910390fd5b6000600360008573ffffffffffffffffffffffffffffffffffffffff1673ffffffffffffffffffffffffffffffffffffffff168152602001908152602001600020838154811061213157612130613cc6565b5b90600052602060002090600802016040518061010001604052908160008201805461215b90613bd7565b80601f016020809104026020016040519081016040528092919081815260200182805461218790613bd7565b80156121d45780601f106121a9576101008083540402835291602001916121d4565b820191906000526020600020905b8154815290600101906020018083116121b757829003601f168201915b5050505050815260200160018201548152602001600282015481526020016003820160009054906101000a900460ff16600281111561221657612215612ee4565b5b600281111561222857612227612ee4565b5b81526020016004820154815260200160058201548152602001600682015481526020016007820160009054906101000a900460ff16600281111561226f5761226e612ee4565b5b600281111561228157612280612ee4565b5b8152505090508060c0015161229461048c565b10156122d5576040517f08c379a00000000000000000000000000000000000000000000000000000000081526004016122cc90614225565b60405180910390fd5b6122fb60405180606001604052806025815260200161451b602591398260c001516127b4565b8373ffffffffffffffffffffffffffffffffffffffff166108fc8260c001519081150290604051600060405180830381858888f19350505050158015612345573d6000803e3d6000fd5b506002600360008673ffffffffffffffffffffffffffffffffffffffff1673ffffffffffffffffffffffffffffffffffffffff168152602001908152602001600020848154811061239957612398613cc6565b5b906000526020600020906008020160070160006101000a81548160ff021916908360028111156123cc576123cb612ee4565b5b0217905550600191505092915050565b60008060009054906101000a900473ffffffffffffffffffffffffffffffffffffffff16905090565b600086868560006124168484611b35565b90508060a0015182101561245f576040517f08c379a000000000000000000000000000000000000000000000000000000000815260040161245690613e32565b60405180910390fd5b6000606460028a6124709190613e52565b61247a9190614116565b9050600080600281111561249157612490612ee4565b5b8960028111156124a4576124a3612ee4565b5b14156124b357600290506124e6565b600160028111156124c7576124c6612ee4565b5b8960028111156124da576124d9612ee4565b5b14156124e557600190505b5b6000601e8910156124f657600290505b6000600f8d111561250657600190505b606481856125149190613e52565b61251e9190614116565b6064838661252c9190613e52565b6125369190614116565b606485876125449190613e52565b61254e9190614116565b866125599190614245565b6125639190614245565b61256d9190614245565b985050505050505050509695505050505050565b60006305f5e10066038d7ea4c68000612598612a11565b476125a39190613e52565b6125ad9190614116565b6125b79190614116565b905090565b6125c46125d0565b6125cd81612ac1565b50565b60008054906101000a900473ffffffffffffffffffffffffffffffffffffffff1673ffffffffffffffffffffffffffffffffffffffff163373ffffffffffffffffffffffffffffffffffffffff161461265e576040517f08c379a0000000000000000000000000000000000000000000000000000000008152600401612655906142c5565b60405180910390fd5b565b600080600090505b60028054905081101561270c576002818154811061268957612688613cc6565b5b90600052602060002090600902016000016040516020016126aa9190613fdd565b6040516020818303038152906040528051906020012084846040516020016126d3929190614019565b6040516020818303038152906040528051906020012014156126f9576001915050612712565b808061270490614032565b915050612668565b50600090505b92915050565b6127b0828260405160240161272e92919061431e565b6040516020818303038152906040527f4b5c4277000000000000000000000000000000000000000000000000000000007bffffffffffffffffffffffffffffffffffffffffffffffffffffffff19166020820180517bffffffffffffffffffffffffffffffffffffffffffffffffffffffff8381831617835250505050612bee565b5050565b61284c82826040516024016127ca929190614355565b6040516020818303038152906040527fb60e72cc000000000000000000000000000000000000000000000000000000007bffffffffffffffffffffffffffffffffffffffffffffffffffffffff19166020820180517bffffffffffffffffffffffffffffffffffffffffffffffffffffffff8381831617835250505050612bee565b5050565b600080600090505b6002805490508110156128fb576002818154811061287957612878613cc6565b5b906000526020600020906009020160000160405160200161289a9190613fdd565b6040516020818303038152906040528051906020012084846040516020016128c3929190614019565b6040516020818303038152906040528051906020012014156128e8578091505061293b565b80806128f390614032565b915050612858565b5082826040517fbe78613c000000000000000000000000000000000000000000000000000000008152600401612932929190613c36565b60405180910390fd5b92915050565b60008061294c612a11565b9050806305f5e1008461295f9190613e52565b6129699190614116565b915050919050565b600080600281111561298657612985612ee4565b5b600360008573ffffffffffffffffffffffffffffffffffffffff1673ffffffffffffffffffffffffffffffffffffffff16815260200190815260200160002083815481106129d7576129d6613cc6565b5b906000526020600020906008020160070160009054906101000a900460ff166002811115612a0857612a07612ee4565b5b14905092915050565b600080600460009054906101000a900473ffffffffffffffffffffffffffffffffffffffff1673ffffffffffffffffffffffffffffffffffffffff1663feaf968c6040518163ffffffff1660e01b815260040160a06040518083038186803b158015612a7c57600080fd5b505afa158015612a90573d6000803e3d6000fd5b505050506040513d601f19601f82011682018060405250810190612ab49190614412565b5050509150508091505090565b3373ffffffffffffffffffffffffffffffffffffffff168173ffffffffffffffffffffffffffffffffffffffff161415612b30576040517f08c379a0000000000000000000000000000000000000000000000000000000008152600401612b27906144d9565b60405180910390fd5b80600160006101000a81548173ffffffffffffffffffffffffffffffffffffffff021916908373ffffffffffffffffffffffffffffffffffffffff1602179055508073ffffffffffffffffffffffffffffffffffffffff1660008054906101000a900473ffffffffffffffffffffffffffffffffffffffff1673ffffffffffffffffffffffffffffffffffffffff167fed8889f560326eb138920d842192f0eb3dd22b4f139c87a2c57538e05bae127860405160405180910390a350565b60008151905060006a636f6e736f6c652e6c6f679050602083016000808483855afa5050505050565b828054612c2390613bd7565b90600052602060002090601f016020900481019282612c455760008555612c8c565b82601f10612c5e57805160ff1916838001178555612c8c565b82800160010185558215612c8c579182015b82811115612c8b578251825591602001919060010190612c70565b5b509050612c999190612d5b565b5090565b828054828255906000526020600020908101928215612cec579160200282015b82811115612ceb578251829080519060200190612cdb929190612c17565b5091602001919060010190612cbd565b5b509050612cf99190612d78565b5090565b604051806101200160405280606081526020016060815260200160608152602001600081526020016000815260200160008152602001600081526020016000815260200160006002811115612d5557612d54612ee4565b5b81525090565b5b80821115612d74576000816000905550600101612d5c565b5090565b5b80821115612d985760008181612d8f9190612d9c565b50600101612d79565b5090565b508054612da890613bd7565b6000825580601f10612dba5750612dd9565b601f016020900490600052602060002090810190612dd89190612d5b565b5b50565b6000819050919050565b612def81612ddc565b82525050565b6000602082019050612e0a6000830184612de6565b92915050565b600081519050919050565b600082825260208201905092915050565b6000819050602082019050919050565b600081519050919050565b600082825260208201905092915050565b60005b83811015612e76578082015181840152602081019050612e5b565b83811115612e85576000848401525b50505050565b6000601f19601f8301169050919050565b6000612ea782612e3c565b612eb18185612e47565b9350612ec1818560208601612e58565b612eca81612e8b565b840191505092915050565b612ede81612ddc565b82525050565b7f4e487b7100000000000000000000000000000000000000000000000000000000600052602160045260246000fd5b60038110612f2457612f23612ee4565b5b50565b6000819050612f3582612f13565b919050565b6000612f4582612f27565b9050919050565b612f5581612f3a565b82525050565b60038110612f6c57612f6b612ee4565b5b50565b6000819050612f7d82612f5b565b919050565b6000612f8d82612f6f565b9050919050565b612f9d81612f82565b82525050565b6000610100830160008301518482036000860152612fc18282612e9c565b9150506020830151612fd66020860182612ed5565b506040830151612fe96040860182612ed5565b506060830151612ffc6060860182612f4c565b50608083015161300f6080860182612ed5565b5060a083015161302260a0860182612ed5565b5060c083015161303560c0860182612ed5565b5060e083015161304860e0860182612f94565b508091505092915050565b600061305f8383612fa3565b905092915050565b6000602082019050919050565b600061307f82612e10565b6130898185612e1b565b93508360208202850161309b85612e2c565b8060005b858110156130d757848403895281516130b88582613053565b94506130c383613067565b925060208a0199505060018101905061309f565b50829750879550505050505092915050565b600060208201905081810360008301526131038184613074565b905092915050565b6000604051905090565b600080fd5b600080fd5b600080fd5b600080fd5b600080fd5b60008083601f8401126131445761314361311f565b5b8235905067ffffffffffffffff81111561316157613160613124565b5b60208301915083600182028301111561317d5761317c613129565b5b9250929050565b7f4e487b7100000000000000000000000000000000000000000000000000000000600052604160045260246000fd5b6131bc82612e8b565b810181811067ffffffffffffffff821117156131db576131da613184565b5b80604052505050565b60006131ee61310b565b90506131fa82826131b3565b919050565b600067ffffffffffffffff82111561321a57613219613184565b5b602082029050602081019050919050565b600080fd5b600067ffffffffffffffff82111561324b5761324a613184565b5b61325482612e8b565b9050602081019050919050565b82818337600083830152505050565b600061328361327e84613230565b6131e4565b90508281526020810184848401111561329f5761329e61322b565b5b6132aa848285613261565b509392505050565b600082601f8301126132c7576132c661311f565b5b81356132d7848260208601613270565b91505092915050565b60006132f36132ee846131ff565b6131e4565b9050808382526020820190506020840283018581111561331657613315613129565b5b835b8181101561335d57803567ffffffffffffffff81111561333b5761333a61311f565b5b80860161334889826132b2565b85526020850194505050602081019050613318565b5050509392505050565b600082601f83011261337c5761337b61311f565b5b813561338c8482602086016132e0565b91505092915050565b61339e81612ddc565b81146133a957600080fd5b50565b6000813590506133bb81613395565b92915050565b6000806000806000806000806000806101008b8d0312156133e5576133e4613115565b5b60008b013567ffffffffffffffff8111156134035761340261311a565b5b61340f8d828e0161312e565b9a509a505060208b013567ffffffffffffffff8111156134325761343161311a565b5b61343e8d828e01613367565b98505060408b013567ffffffffffffffff81111561345f5761345e61311a565b5b61346b8d828e0161312e565b9750975050606061347e8d828e016133ac565b955050608061348f8d828e016133ac565b94505060a06134a08d828e016133ac565b93505060c06134b18d828e016133ac565b92505060e06134c28d828e016133ac565b9150509295989b9194979a5092959850565b60008115159050919050565b6134e9816134d4565b82525050565b600060208201905061350460008301846134e0565b92915050565b6000602082840312156135205761351f613115565b5b600061352e848285016133ac565b91505092915050565b600081519050919050565b600082825260208201905092915050565b6000819050602082019050919050565b600081519050919050565b600082825260208201905092915050565b6000819050602082019050919050565b600061359b8383612e9c565b905092915050565b6000602082019050919050565b60006135bb82613563565b6135c5818561356e565b9350836020820285016135d78561357f565b8060005b8581101561361357848403895281516135f4858261358f565b94506135ff836135a3565b925060208a019950506001810190506135db565b50829750879550505050505092915050565b60006101208301600083015184820360008601526136438282612e9c565b9150506020830151848203602086015261365d82826135b0565b915050604083015184820360408601526136778282612e9c565b915050606083015161368c6060860182612ed5565b50608083015161369f6080860182612ed5565b5060a08301516136b260a0860182612ed5565b5060c08301516136c560c0860182612ed5565b5060e08301516136d860e0860182612ed5565b506101008301516136ed610100860182612f94565b508091505092915050565b60006137048383613625565b905092915050565b6000602082019050919050565b600061372482613537565b61372e8185613542565b93508360208202850161374085613553565b8060005b8581101561377c578484038952815161375d85826136f8565b94506137688361370c565b925060208a01995050600181019050613744565b50829750879550505050505092915050565b600060208201905081810360008301526137a88184613719565b905092915050565b600381106137bd57600080fd5b50565b6000813590506137cf816137b0565b92915050565b6000806000604084860312156137ee576137ed613115565b5b600084013567ffffffffffffffff81111561380c5761380b61311a565b5b6138188682870161312e565b9350935050602061382b868287016137c0565b9150509250925092565b6003811061384257600080fd5b50565b60008135905061385481613835565b92915050565b60008060008060008060a0878903121561387757613876613115565b5b600087013567ffffffffffffffff8111156138955761389461311a565b5b6138a189828a0161312e565b965096505060206138b489828a016133ac565b94505060406138c589828a016133ac565b93505060606138d689828a01613845565b92505060806138e789828a016133ac565b9150509295509295509295565b600073ffffffffffffffffffffffffffffffffffffffff82169050919050565b600061391f826138f4565b9050919050565b61392f81613914565b811461393a57600080fd5b50565b60008135905061394c81613926565b92915050565b60006020828403121561396857613967613115565b5b60006139768482850161393d565b91505092915050565b6000806020838503121561399657613995613115565b5b600083013567ffffffffffffffff8111156139b4576139b361311a565b5b6139c08582860161312e565b92509250509250929050565b60006101208301600083015184820360008601526139ea8282612e9c565b91505060208301518482036020860152613a0482826135b0565b91505060408301518482036040860152613a1e8282612e9c565b9150506060830151613a336060860182612ed5565b506080830151613a466080860182612ed5565b5060a0830151613a5960a0860182612ed5565b5060c0830151613a6c60c0860182612ed5565b5060e0830151613a7f60e0860182612ed5565b50610100830151613a94610100860182612f94565b508091505092915050565b60006020820190508181036000830152613ab981846139cc565b905092915050565b60008060408385031215613ad857613ad7613115565b5b6000613ae68582860161393d565b9250506020613af7858286016133ac565b9150509250929050565b613b0a81613914565b82525050565b6000602082019050613b256000830184613b01565b92915050565b600082825260208201905092915050565b7f4e6f74206120706f6c69637920686f6c6465722e000000000000000000000000600082015250565b6000613b72601483613b2b565b9150613b7d82613b3c565b602082019050919050565b60006020820190508181036000830152613ba181613b65565b9050919050565b7f4e487b7100000000000000000000000000000000000000000000000000000000600052602260045260246000fd5b60006002820490506001821680613bef57607f821691505b60208210811415613c0357613c02613ba8565b5b50919050565b6000613c158385613b2b565b9350613c22838584613261565b613c2b83612e8b565b840190509392505050565b60006020820190508181036000830152613c51818486613c09565b90509392505050565b7f496e76616c696420737562736372697074696f6e2049642e0000000000000000600082015250565b6000613c90601883613b2b565b9150613c9b82613c5a565b602082019050919050565b60006020820190508181036000830152613cbf81613c83565b9050919050565b7f4e487b7100000000000000000000000000000000000000000000000000000000600052603260045260246000fd5b7f4e6f7420656e6f7567682077656920746f20706179207072656d696e756d0000600082015250565b6000613d2b601e83613b2b565b9150613d3682613cf5565b602082019050919050565b60006020820190508181036000830152613d5a81613d1e565b9050919050565b7f4e487b7100000000000000000000000000000000000000000000000000000000600052601160045260246000fd5b6000613d9b82612ddc565b9150613da683612ddc565b9250827fffffffffffffffffffffffffffffffffffffffffffffffffffffffffffffffff03821115613ddb57613dda613d61565b5b828201905092915050565b7f73756d2061737375726564206973206e6f7420636f72726563742e0000000000600082015250565b6000613e1c601b83613b2b565b9150613e2782613de6565b602082019050919050565b60006020820190508181036000830152613e4b81613e0f565b9050919050565b6000613e5d82612ddc565b9150613e6883612ddc565b9250817fffffffffffffffffffffffffffffffffffffffffffffffffffffffffffffffff0483118215151615613ea157613ea0613d61565b5b828202905092915050565b7f4e6f7420656e6f7567682057656920746f20627579207468697320706f6c696360008201527f7900000000000000000000000000000000000000000000000000000000000000602082015250565b6000613f08602183613b2b565b9150613f1382613eac565b604082019050919050565b60006020820190508181036000830152613f3781613efb565b9050919050565b600081905092915050565b60008190508160005260206000209050919050565b60008154613f6b81613bd7565b613f758186613f3e565b94506001821660008114613f905760018114613fa157613fd4565b60ff19831686528186019350613fd4565b613faa85613f49565b60005b83811015613fcc57815481890152600182019150602081019050613fad565b838801955050505b50505092915050565b6000613fe98284613f5e565b915081905092915050565b60006140008385613f3e565b935061400d838584613261565b82840190509392505050565b6000614026828486613ff4565b91508190509392505050565b600061403d82612ddc565b91507fffffffffffffffffffffffffffffffffffffffffffffffffffffffffffffffff8214156140705761406f613d61565b5b600182019050919050565b7f4d7573742062652070726f706f736564206f776e657200000000000000000000600082015250565b60006140b1601683613b2b565b91506140bc8261407b565b602082019050919050565b600060208201905081810360008301526140e0816140a4565b9050919050565b7f4e487b7100000000000000000000000000000000000000000000000000000000600052601260045260246000fd5b600061412182612ddc565b915061412c83612ddc565b92508261413c5761413b6140e7565b5b828204905092915050565b7f537562736372697074696f6e206973206e6f7420616374697665000000000000600082015250565b600061417d601a83613b2b565b915061418882614147565b602082019050919050565b600060208201905081810360008301526141ac81614170565b9050919050565b7f4e6f7420656e6f7567682062616c616e636520746f20736574746c6520636c6160008201527f696d2e0000000000000000000000000000000000000000000000000000000000602082015250565b600061420f602383613b2b565b915061421a826141b3565b604082019050919050565b6000602082019050818103600083015261423e81614202565b9050919050565b600061425082612ddc565b915061425b83612ddc565b92508282101561426e5761426d613d61565b5b828203905092915050565b7f4f6e6c792063616c6c61626c65206279206f776e657200000000000000000000600082015250565b60006142af601683613b2b565b91506142ba82614279565b602082019050919050565b600060208201905081810360008301526142de816142a2565b9050919050565b60006142f082612e3c565b6142fa8185613b2b565b935061430a818560208601612e58565b61431381612e8b565b840191505092915050565b6000604082019050818103600083015261433881856142e5565b9050818103602083015261434c81846142e5565b90509392505050565b6000604082019050818103600083015261436f81856142e5565b905061437e6020830184612de6565b9392505050565b600069ffffffffffffffffffff82169050919050565b6143a481614385565b81146143af57600080fd5b50565b6000815190506143c18161439b565b92915050565b6000819050919050565b6143da816143c7565b81146143e557600080fd5b50565b6000815190506143f7816143d1565b92915050565b60008151905061440c81613395565b92915050565b600080600080600060a0868803121561442e5761442d613115565b5b600061443c888289016143b2565b955050602061444d888289016143e8565b945050604061445e888289016143fd565b935050606061446f888289016143fd565b9250506080614480888289016143b2565b9150509295509295909350565b7f43616e6e6f74207472616e7366657220746f2073656c66000000000000000000600082015250565b60006144c3601783613b2b565b91506144ce8261448d565b602082019050919050565b600060208201905081810360008301526144f2816144b6565b905091905056fe7472616e7366657272696e6720257320657468657220746f20636f6e746163742e7472616e7366657272696e672025732077656920746f20706f6c69637920686f6c6465722e506f6c6963792077697468206e616d6520257320616c7265616479206578697374732ea26469706673582212209402e03ed3264fef026ec9bc28004e2e8a026fd998f65112ddc350877084d95564736f6c63430008090033466f72206f7267616e69736174696f6e73207769746820616476616e636564206e65656473466f7220737461727475707320616e642067726f77696e6720627573696e6573736573",
  "linkReferences": {},
  "deployedLinkReferences": {}
}